:02000004080AE8
:1000000000000A0888190A0800000500060005011A
:080010000402EA0300000000F5
:1000180038150A0809480A4908B5884205D0094A26
:10002800824202D0121A01F08FF90748074A0021CC
:10003800121A01F094F9064808BD00BF0003002019
:10004800F4180A086C0300206C030020EC08002058
:10005800EC08002070B500F0F3FE074B074C1E4675
:10006800E41AA4080025A54204D056F8253098477C
:100078000135F8E770BD00BFBC180A08EC180A087B
:1000880000F044B908B500F039F9BDE8084000F0BF
:1000980099BE00F0BDBA0078B0FA80F04009704708
:1000A8000123037070470000F0B5012185B00646B2
:1000B80000F0C0FCA0F13005072D044625D81649EC
:1000C800684600F03FFC6946304600F0A1FC074650
:1000D800684600F0F0FB0FB1ACB20EE00F4968467D
:1000E80000F030FC6946304600F092FC0546684650
:1000F80000F0E1FB65B1263CA4B22046032100F0E4
:10010800EFFE204600F016FF04E04FF0FF3001E05C
:100118006FF0010005B0F0BD4C150A084E150A082D
:10012800F0B5012185B0064600F084FCA0F130044A
:10013800072C45D8072303223146684600F07CFC8B
:100148002449684600F03CFC0546684600F0B3FBCD
:100158007DB9062303223146684600F06DFC1E492E
:10016800684600F02DFC0746684600F0A4FB0FB96E
:1001780029E001251949684600F0E4FB6946304644
:1001880000F046FC0746684600F095FB6FB9144935
:10019800684600F0D7FB3046694600F039FC064651
:1001A800684600F088FB8EB10A34A4B201212046CB
:1001B80000F096FE2046294600F0A3FE012007E045
:1001C8004FF0FF3004E06FF0010001E06FF0020033
:1001D80005B0F0BD50150A0855150A084C150A084F
:1001E8004E150A087FB50121054600F023FCA0F151
:1001F8003003072B04461FD81449684600F0A2FBB9
:100208006946284600F004FC0646684600F053FBA1
:10021800AEB90F49684600F095FB2846694600F0DC
:10022800F7FB0546684600F046FB5DB1A4F12600E1
:1002380080B200F092FE07E04FF0FF3004E06FF06C
:10024800020001E06FF0010004B070BD4C150A080F
:100258004E150A08F0B5012189B0064600F0EAFB00
:10026800A0F13005072D04463ED8032231466846E2
:1002780000F00AFC1F4904A800F064FB04A93046FA
:1002880000F0C6FB074604A800F015FB57B1ADB255
:100298000121284600F024FE684600F0FCFB0146D8
:1002A800284617E0144904A800F04CFB04A930467E
:1002B80000F0AEFB054604A800F0FDFA75B1263C37
:1002C800A4B20121204600F00BFE684600F0E3FBD3
:1002D8000146204600F058FE012401E06FF00104B9
:1002E800684600F0E8FA01E04FF0FF34204609B014
:1002F800F0BD00BF4C150A084E150A0870470000EB
:100308000246014800F0B3B94B060A0808B5084987
:100318000848FFF7F5FF08490848FFF7F1FF0849C3
:100328000848FFF7EDFF08490848FFF7E9FF08BD4F
:10033800B1000A0859150A0829010A0865150A08AA
:10034800ED010A0872150A085D020A087D150A08F7
:1003580000F020B808B5024B1B681B6B019308BD61
:10036800D001060808B5024B1B68DB6E019308BD77
:10037800B801060808B5024B1B685B68019308BD05
:100388009C01060808B5024B1B685B69019308BD10
:100398009C01060808B5024B1B681B68019308BD41
:1003A800B001060808B5024B1B685B68019308BDDD
:1003B800B001060808B5024B1B689B68019308BD8D
:1003C800B001060808B5024B1B68DB68019308BD3D
:1003D800B001060808B5024B1B681B69019308BDEC
:1003E800B001060808B5024B1B685B69019308BD9C
:1003F800B001060808B5024B1B689B6A019308BD4B
:10040800B001060808B5024B1B681B6B019308BDB9
:10041800B001060808B5024B1B689B6F019308BD25
:10042800B001060808B5024B1B681B6E019308BD96
:10043800AC01060808B5024B1B685B6E019308BD4A
:10044800AC01060808B5024B1B689B6E019308BDFA
:10045800AC01060808B5024B1B68DB6E019308BDAA
:10046800AC01060808B5024B1B681B6F019308BD59
:10047800AC01060808B5024B1B685B6F019308BD09
:10048800AC01060808B5034B1B68D3F8803001930C
:1004980008BD0000AC01060808B5024B1B68DB6903
:1004A800019308BDB401060808B5024B1B681B6A16
:1004B800019308BDB401060808B5024B1B689B6987
:1004C800019308BDC401060808B5024B1B685B6AA6
:1004D800019308BDC401060808B5024B1B689B6A56
:1004E800019308BDC401060808B5024B1B68DB6A06
:1004F800019308BDC401060808B5024B1B681B6BB5
:10050800019308BDC401060808B5024B1B685B6B64
:10051800019308BDC401060808B5024B1B689B6B14
:10052800019308BDC401060808B5024B1B681B6C83
:10053800019308BDC401060808B5024B1B681B6877
:10054800019308BDD801060808B5024B1B681B6952
:10055800019308BDD801060808B5024B1B685B6902
:10056800019308BDD801060808B5024B1B689B69B2
:10057800019308BDD801060808B5024B1B68DB6962
:10058800019308BDD801060808B5024B1B681B6A11
:10059800019308BDD801060808B5024B1B685B68C3
:1005A800019308BDA401060808B5034B1B68D3F8DE
:1005B8009030019308BD0000A401060808B5034B5C
:1005C8001B68D3F89C30019308BD0000A4010608FD
:1005D80008B5024B1B685B68019308BDCC0106088F
:1005E80008B5024B1B68DB6B019308BDCC010608FC
:1005F80008B5024B1B681B69019308BDC8010608B2
:1006080008B5024B1B681B68019308BDA0010608CA
:1006180008B5024B1B685B68019308BDA00106087A
:1006280008B5024B1B689B68019308BDA00106082A
:1006380010B58368044613B1032201469847204643
:1006480010BD10B588B00446684600F07BF96946CD
:1006580004A800F099F904A8A047044604A800F0EB
:100668002AF9684600F027F9204608B010BDF0B511
:1006780007460E46154685B01024224600216846D6
:1006880000F06DFE002269461046ADF80040029762
:1006980003960195FFF79CFF05B0F0BD7047F8B5CC
:1006A800064615460C468F18BC4206D0336814F827
:1006B800011B9B6830469847F6E72846F8BD00229C
:1006C800007CFFF7AFBE0021007CFFF7B3BE00211E
:1006D800007CFFF7B7BE0021007CFFF7BBBE0021FE
:1006E800007CFFF7BFBE10B50446FFF7D2FC2046DA
:1006F80010BD000010B5044608464FF47A73A36095
:10070800044B0021207461602360FFF7BBFE204684
:1007180010BD00BF94150A080021007CFFF7AABE8F
:10072800704710B50446FFF7B4FC204610BDF8B575
:100738000F4600F10806051D002416F8011D0A22BF
:10074800384600F082F8AE42044407D0002CF4D0BA
:100758002E21384600F04CF80444EEE72046F8BD58
:1007680010B59DF8084044EA032343EA024242EAEE
:10077800016104234160037510BD000037B5044DC5
:1007880005609DF818500095FFF7EAFF03B030BDEB
:10079800BC150A08014A024B1A60704783160A08FA
:1007A80070030020F8B506460D468F180024BD4298
:1007B8000CD0336815F8011B9B6830469847002811
:1007C80001DB0444F3E7002C08BF04462046F8BDCB
:1007D80070B505460C46084649B100F0FBFD2B688C
:1007E800024621462846BDE87040DB68184770BDC0
:1007F80003689B681847012A98BF0A2230B50B4640
:100808008BB000218DF824100DF12304B3FBF2F511
:1008180005FB1233DBB2092B94BF30333733DBB21D
:10082800214604F801392B46002DEFD1FFF7D0FF00
:100838000BB030BD10B422B90368C9B29B6810BCB4
:100848001847D2B210BCFFF7D6BFFFF7F3BF10B5F9
:100858000446FFF7EDFE204610BD000003480023C4
:100868008360034A034900F00FBC00BF74030020F3
:100878006C03002057080A08704710B50446FFF7B4
:1008880008FC204610BD000070B504460E46074B14
:100898000025036040F80C5FFFF75CFD30462671C9
:1008A800FFF7FAFDA560204670BD00BFB4160A0820
:1008B8000079FFF7F9BD10B504460068FFF7A8FEF8
:1008C800204610BD10B50446006808B1FFF7A0FE29
:1008D80000232360A360636010BD38B504460D464D
:1008E80000680131FFF79CFE10B184E82100012067
:1008F80038BD10B50368044613B143688B4207D26C
:100908002046FFF7EAFF20B1A3680BB922681370ED
:10091800012010BD70B50E46114604461546FFF776
:10092800E8FF18B92046FFF7CDFF09E02A4631460F
:10093800A560206800F008FD2268A3680021D15452
:10094800204670BD38B500230446036043608360C9
:1009580003730D4639B1084600F03CFD29460246AE
:100968002046FFF7D7FF204638BD884210B50B4612
:10097800044607D0096819B19A68FFF7CBFF01E070
:10098800FFF7A0FF204610BD10B504460023036002
:10099800436083600373FFF7E8FF204610BD38B556
:1009A80005460C4641B1084600F014FD21460246B2
:1009B8002846FFF7AFFF01E0FFF784FF284638BD60
:1009C80008B582680B4612B919B9012008BD11B9DA
:1009D8000368187802E0006800F0F2FCB0FA80F0D2
:1009E800400908BD10B5144683688A689B1AA3425B
:1009F8000AD3006858B1096841B1204400F0F2FCFC
:100A0800B0FA80F0400910BD002010BD084610BDA6
:100A180082688B689A4202D30022FFF7E3BF002066
:100A2800704783688B4203D9006810B1405C7047F7
:100A380000207047FFF7F5BF2DE9F0411C469A42A8
:100A480088BF13460E46154688BF25460D4988BF00
:100A58001C460746FFF776FFB1688D420FD88C42D7
:100A680028BF0C463368002213F804801A553168F1
:100A780038462944FFF793FF336803F80480384663
:100A8800BDE8F081DE150A0810B504468B68FFF74B
:100A9800D3FF204610BD006808B100F043BC704782
:100AA8004FF69C7337B50D4C002563804FF6FF73E6
:100AB8002846A3802570FFF76FFD02A840F8045D63
:100AC8002A462946FFF74EFC019B1E2B04D103231F
:100AD800237011236580A38003B030BD84030020F8
:100AE800024B1A68024B1A60704700BF00030020CF
:100AF8008C030020704741747047007CFFF714BDD9
:100B0800007CFFF7E9BC007CFFF7F6BC007CFFF730
:100B1800EBBC007CFFF7F8BC10B50446FFF7B9FA48
:100B2800204610BD70B5457C04460E4625B9007CAC
:100B3800FFF7FAFC002805DD3146207CBDE870404F
:100B4800FFF7C2BC284670BD10B5044608461146DA
:100B5800002262604FF47A72A260054A2074226013
:100B6800012262741A46FFF7A7FC204610BD00BF99
:100B7800F0160A08007CFFF7CFBC000038B50C4D12
:100B8800296811F0010411D12846FFF784FA68B1E9
:100B9800084A2146084B0948FFF7D6FF2846FFF7C1
:100BA8007FFA074A0749054800F06EFA034838BD3E
:100BB800280400202C040020A40300209003002017
:100BC8006C030020FD0A0A08417470477047002131
:100BD800007CFFF7C9BC0121007CFFF7C5BC007C85
:100BE800FFF7BABC007CFFF7AFBC38B50446007C01
:100BF8000D46FFF7B1FC002801DC607C20B12946D6
:100C0800207CFFF7B9FC012038BD007CFFF7BCBC95
:100C180010B50446FFF73DFA204610BD10B504464E
:100C2800002363604FF47A73A360054B0846236082
:100C38000123217463741146FFF77EFC204610BD22
:100C480020170A0810B504461422002100F087FB7B
:100C5800054B20466360054BE36040F20113238196
:100C68008123238210BD00BF35050020B404002075
:100C780030B50E4D87B001A8FFF7E4FF296811F0E1
:100C8800010410D12846FFF706FA60B101AA2146EF
:100C98000748FFF7C3FF2846FFF702FA054A064947
:100CA800034800F0F1F9024807B030BDB004002055
:100CB800380600206C030020D50B0A0810B504463E
:100CC8001422002100F04BFB054B20466360054BC6
:100CD800E36040F2011323818123238210BD00BF0A
:100CE800E80600205006002010B50E4C86B001A87A
:100CF800FFF7E4FF2368DB0710D42046FFF7CBF9A2
:100D080060B101AA01210848FFF788FF2046FFF7D4
:100D1800C7F9064A0649044800F0B6F9024806B081
:100D280010BD00BF4C060020D40600206C03002034
:100D3800D50B0A087047002211461046FFF758BC29
:100D48000348044B044A0549036000F09DB900BFFD
:100D5800EC07002050170A086C0300203D0D0A0814
:100D680008B5144B33B1FFF783FF03681B69984735
:100D7800002816DC104B33B1FFF700FF03681B692E
:100D88009847002810DC0D4B0BB1AFF300800C4BDB
:100D98007BB1FFF7A9FF03681B699847002806DCA9
:100DA80008BDAFF30080E5E7AFF30080EBE7AFF3F2
:100DB800008008BD000000000000000000000000E6
:100DC8000000000008B5FFF7CBFFFFF7DBFA014B87
:100DD800186008BDF80700200248034A0349121AA0
:100DE80000F0B2BA0040024004400240F0180A087D
:100DF80007B5002300931A466FF07701FFF7DEFB73
:100E080003B05DF804FB000007B543880A2B08D03F
:100E1800502B09D1094B1B683BB103B05DF804EBBB
:100E28001847FFF7E5FF06E0002300931A466FF026
:100E38007701FFF7C3FB03B05DF804FBF007002060
:100E480038B5104C104D2368AB42104B0CBF012233
:100E580000221A7002D0FFF7BFFF2560FFF78AFA59
:100E680000F086FA0A4B1BB1FFF784FAAFF3008053
:100E780000210748FFF7B4FBBDE8384000210548CA
:100E8800FFF792BB004002401E1C279AF40700207F
:100E980000000000110E0A0810B504460F48FFF7BD
:100EA80007FD28B1A4F10D03022B01D8002010BDC5
:100EB80000F090F8FFF730FC08B1012CF6D9FFF7E5
:100EC8005DFEFFF757FE18B1A4F11203012BEDD90F
:100ED800172C8CBF0020012010BD00BF2C0800205B
:100EE800172838B504460D460AD8FF2908D0FFF759
:100EF800D3FF28B129462046BDE83840FFF75ABA43
:100F080038BD38B504460D46FFF75CFAFF2810D007
:100F1800062804D84D2323FA00F0C30709D4204635
:100F2800FFF7BAFF28B129462046BDE83840FFF749
:100F380051BA38BD10B50446FFF744FA0438C0B2B8
:100F4800012808D92046FFF7A7FF20B12046BDE8B1
:100F58001040FFF747BA002010BD10B50446092815
:100F68009CBF0A34A4B22046FFF796FF50B1032174
:100F78002046FFF717FA032804D12046BDE81040A1
:100F8800FFF740BA002010BD38B504460D46FFF7FC
:100F980083FFF0B104212046FFF704FA042805D1A5
:100FA800A9B22046BDE83840FFF724BA02212046FE
:100FB800FFF7F8F902280CD12046FFF703FA0128B9
:100FC80001D0042805D129462046BDE83840FFF75E
:100FD80021BA38BD38B50B4D296811F001040FD17D
:100FE8002846FFF758F858B121460748FFF782FB13
:100FF8002846FFF755F8054A0549034800F044F824
:10100800014838BDFC070020000800206C030020C0
:10101800A5060A0813B5084C00231A46194600937A
:101028002046FFF7ABFB2046044A054902B0BDE85D
:10103800104000F029B800BF140800206C030020FD
:1010480029070A0870B50C4C0C4E0D4D002120469E
:10105800FFF71AFC20460B4C3246294600F014F8DC
:1010680001212046FFF710FC324629462046BDE8FC
:10107800704000F009B800BF2C0800206C03002065
:1010880081080A083C0800200B460146184600F073
:101098004DB90000244B1A68D0075CBF01221A60C2
:1010A800224B1A68D1075CBF01221A60204B1A68CC
:1010B800D2075CBF01221A601E4B1A68D0075CBFBA
:1010C80001221A601C4B1A68D1075CBF01221A6002
:1010D8001A4B1A68D2075CBF01221A60184B1A68AB
:1010E800D0075CBF01221A60164B1A68D1075CBF93
:1010F80001221A60144B1A68D2075CBF01221A60D9
:10110800124B1A68D0075CBF01221A60104B1A688C
:10111800D1075CBF01221A600E4B1A68D2075CBF68
:1011280001221A60704700BF780800207408002068
:10113800700800206C08002068080020640800205F
:10114800600800205C08002058080020540800208F
:10115800500800204C080020184B1A68D1075CBFC3
:1011680001221A60164B1A68D2075CBF01221A6066
:10117800144B1A68D0075CBF01221A60124B1A6818
:10118800D1075CBF01221A60104B1A68D2075CBFF6
:1011980001221A600E4B1A68D0075CBF01221A6040
:1011A8000C4B1A68D1075CBF01221A600A4B1A68F7
:1011B800D2075CBF01221A60704700BF9808002060
:1011C80094080020900800208C080020880800203F
:1011D80084080020800800207C080020184B1A682A
:1011E800D1075CBF01221A60164B1A68D2075CBF90
:1011F80001221A60144B1A68D0075CBF01221A60DA
:10120800124B1A68D1075CBF01221A60104B1A688A
:10121800D2075CBF01221A600E4B1A68D0075CBF68
:1012280001221A600C4B1A68D1075CBF01221A60B0
:101238000A4B1A68D2075CBF01221A60704700BFC8
:10124800B8080020B4080020B0080020AC0800202E
:10125800A8080020A4080020A00800209C0800205E
:10126800244B1A68D0075CBF01221A60224B1A6807
:10127800D1075CBF01221A60204B1A68D2075CBFF5
:1012880001221A601E4B1A68D0075CBF01221A603F
:101298001C4B1A68D1075CBF01221A601A4B1A68E6
:1012A800D2075CBF01221A60184B1A68D0075CBFCE
:1012B80001221A60164B1A68D1075CBF01221A6016
:1012C800144B1A68D2075CBF01221A60124B1A68C5
:1012D800D0075CBF01221A60104B1A68D1075CBFA7
:1012E80001221A600E4B1A68D2075CBF01221A60ED
:1012F800704700BFE8080020E4080020E00800204C
:10130800DC080020D8080020D4080020D0080020DD
:10131800CC080020C8080020C4080020C00800200D
:10132800BC0800200A22002100F0F8B810B5054CCE
:1013380013462CB10A4601460220AFF3008010BDC7
:10134800204610BD0000000010B5431E0A4491421B
:1013580004D011F8014B03F8014FF8E710BD03461C
:101368000244934202D003F8011BFAE770470000D9
:1013780038B5124B05461C68A36BD3B91820FFF784
:101388003FF943F20E33A06303804AF6CD3343801E
:1013980041F2342383804EF26D63C3804DF6EC63D3
:1013A8000381052343810B23838101220023C0E9A4
:1013B8000423A36B00221D615A6138BD6803002015
:1013C80010F8012B11F8013B012A28BF9A42F7D0E7
:1013D800D01A7047034613F8012B002AFBD1181ABC
:1013E8000138704730B582B1451E013915F8013F03
:1013F80011F8014FA34206D1EC431444E04201D056
:10140800002BF3D11C46181B30BD104630BD000020
:101418002DE9F0470F4680463F48D0F800903D46FA
:1014280015F8014B09EB0400407800F0080000F0C3
:10143800FF0608B12F46F2E72D2C03D1BD1C7C789E
:10144800012603E02B2C04BF7C78BD1C13B1102BA4
:101458000AD15BE0302C57D1287800F0DF005828FB
:101468004DD16C7810230235002E14BF4FF0004C7C
:101478006FF0004CBCFBF3FA0027384603FB1ACC8C
:1014880009EB040E9EF801E01EF0040F01D0303C79
:101498000BE01EF0030E1BD0BEF1010F0CBF4FF086
:1014A800370E4FF0570ECEEB0404A34210DDB7F110
:1014B800FF3F0AD0504506D801D1644503DC03FB41
:1014C8000040012701E04FF0FF3715F8014BD7E73F
:1014D8007B1C0CD1002E4FF0220314BF4FF00040AC
:1014E8006FF00040C8F800302AB9BDE8F08706B1AF
:1014F800404272B107B1691E1160BDE8F08730241F
:10150800002BB1D10823AFE70A23ADE7302CA3D0D5
:10151800AAE7BDE8F08700BF0403002013460A4687
:10152800014602480068FFF773BF00BF6803002048
:101538001D000A085D000A0889000A088D000A08CB
:10154800000000004400410048494748004C4F57FC
:10155800006469676974616C7265616400646967D5
:101568006974616C777269746500616E616C6F672C
:101578007265616400616E616C6F6777726974652A
:10158800000000000000000000000000A5060A0896
:10159800EF060A08C7060A08A7060A08CF060A08B7
:1015A800D7060A08DF060A08E7060A08000000004E
:1015B8000000000037070A0829070A082B070A084D
:1015C80066006C6E00666E00636F64650064657427
:1015D80061696C000D0A00253031307520005D20EE
:1015E800002564002C200028293A2000205B006395
:1015F8006F6465203D200025690064657461696C2D
:1016080073203D2000626175640053657269616CE6
:101618000055534253657269616C31007479706585
:1016280000706172616D00636D6400696400686ECA
:1016380064007374726D0066696C74006C766C007B
:1016480061646448616E646C65720072656D6F7682
:101658006548616E646C657200656E756D48616E93
:10166800646C657273004A534F4E53747265616DB2
:101678004C6F6748616E646C657200617070006ED3
:101688006F6E6500747261636500696E666F0077DE
:1016980061726E006572726F720070616E696300CC
:1016A800616C6C00000000000000000081080A085E
:1016B80083080A085A00252B3033643A25303275DE
:1016C8000025592D256D2D25645425483A254D3A78
:1016D8002553257A0061736374696D650000000005
:1016E8000000000000000000FD0A0A08210B0A089B
:1016F8002D0B0A08AD070A08090B0A08150B0A087A
:101708000F0B0A081B0B0A08FF0A0A08030B0A0832
:101718000000000000000000D50B0A08190C0A0898
:10172800F30B0A08AD070A08ED0B0A08D70B0A08DD
:10173800DF0B0A08130C0A08E70B0A08D10B0A0882
:1017480000000000000000003F0D0A0800202020D3
:101758002020202020202828282828202020202059
:101768002020202020202020202020202088101029
:101778001010101010101010101010101004040485
:101788000404040404040410101010101010414143
:101798004141414101010101010101010101010131
:1017A8000101010101010101101010101010424245
:1017B8004242424202020202020202020202020201
:1017C80002020202020202021010101020000000A1
:1017D8000000000000000000000000000000000001
:1017E80000000000000000000000000000000000F1
:1017F80000000000000000000000000000000000E1
:1018080000000000000000000000000000000000D0
:1018180000000000000000000000000000000000C0
:1018280000000000000000000000000000000000B0
:1018380000000000000000000000000000000000A0
:101848000000000000000000000000000000000090
:101858000000000000000000000000000000000080
:101868000000000000000000000000000000000070
:101878000000000000000000000000000000000060
:101888000000000000000000000000000000000050
:101898000000000000000000000000000000000040
:1018A8000000000000000000000000000000000030
:1018B8004300000059030A089D070A0865080A083A
:1018C800A90A0A08E90A0A08490D0A081D100A089F
:1018D8004D100A089D100A0861110A08E5110A0846
:0818E80069120A08000000006B
:0418F00000000000F4
:1018F400DD160A0854170A080000000058180A08E0
:1019040078180A0898180A0800000000000000006F
:101914000000000000000000B8180A0800000000E1
:1019240000000000000000000000000000000000B3
:1019340000000000000000000000000000000000A3
:101944000000000000000000000000000000000093
:0C1954000000000000000000080300205C
:10196000FFFFFFFF00000102030405060708090A44
:101970000B0C0D0E0F101112131415161718191A3F
:081980001B1C1D1E1F20280086
:041988007856341247
:04000005080A0018CD
:00000001FF
