:02000004080AE8
:1000000000000A08E8470A0800000500060005018C
:080010000402EA0300000000F5
:100018005C420A0809480A4908B5884205D0094AD5
:10002800824202D0121A03F0FFFF0748074A002154
:10003800121A04F004F8064808BD00BF00030020A7
:100048004C470A0870030020700300207C09002038
:100058007C09002070B502F061FC074B074C1E4676
:10006800E41AA4080025A54204D056F8253098477C
:100078000135F8E770BD00BF08470A0840470A087D
:1000880000F0BEBA08B500F011FABDE8084002F069
:1000980007BC01F07FB901F07DB901F083B901F027
:1000A80081B90078B0FA80F04009704701230370E5
:1000B80070470000014B01221A60704700030020BE
:1000C8007FB50121054601F00FFFA0F13003072B92
:1000D80004461FD81449684601F041FE694628467F
:1000E80001F0F0FE0646684601F0F2FDAEB90F4990
:1000F800684601F034FE2846694601F0E3FE0546ED
:10010800684601F0E5FD5DB1A4F1260080B202F079
:10011800AAFC07E04FF0FF3004E06FF0020001E0B6
:100128006FF0010004B070BD70420A0872420A08FC
:10013800F0B5012185B0064601F0D6FEA0F13005E4
:10014800072D044625D81649684601F008FE694679
:10015800304601F0B7FE0746684601F0B9FD0FB119
:10016800ACB20EE00F49684601F0F9FD6946304629
:1001780001F0A8FE0546684601F0AAFD65B1263CD7
:10018800A4B22046032102F031FC204602F058FCBC
:1001980004E04FF0FF3001E06FF0010005B0F0BD62
:1001A80070420A0872420A08F0B5012185B0064675
:1001B80001F09AFEA0F13004072C45D8072303224A
:1001C8003146684601F092FE2449684601F052FE25
:1001D8000546684601F07CFD7DB9062303223146B9
:1001E800684601F083FE1E49684601F043FE074653
:1001F800684601F06DFD0FB929E0012519496846E7
:1002080001F0ADFD6946304601F05CFE07466846E0
:1002180001F05EFD6FB91449684601F0A0FD304653
:10022800694601F04FFE0646684601F051FD8EB161
:100238000A34A4B20121204602F0D8FB2046294600
:1002480002F0E5FB012007E04FF0FF3004E06FF01B
:10025800010001E06FF0020005B0F0BD74420A0829
:1002680079420A0870420A0872420A08F0B5012168
:1002780089B0064601F038FEA0F13005072D044686
:100288003ED803223146684601F058FE1F4904A8AB
:1002980001F065FD04A9304601F014FE074604A8E4
:1002A80001F016FD57B1ADB20121284602F09EFBC0
:1002B800684601F04AFE0146284617E0144904A89A
:1002C80001F04DFD04A9304601F0FCFD054604A8E7
:1002D80001F0FEFC75B1263CA4B20121204602F0D3
:1002E80085FB684601F031FE0146204602F0D2FB4C
:1002F800012401E06FF00104684601F0E9FC01E027
:100308004FF0FF34204609B0F0BD00BF70420A0824
:1003180072420A0830B5044689B014480D4600F008
:1003280048FBC0B9124904A801F019FD02F0C6F84B
:100338000A220146684601F050FD694604A801F00A
:100348008DFD0168094800F019FC684601F0C0FC01
:1003580004A801F0BDFC054800F02BFB20B12A6879
:100368002146024800F089FC09B030BD780300201E
:100378007D420A0838B5046805467CB16368013BCC
:1003880063605BB9236820469B689847A368013B74
:10039800A3601BB923682046DB689847284638BD08
:1003A80010B50B2086B002F05EFB334B1860334B60
:1003B800A0F6E210186003F0B9FA314903F00AFB1D
:1003C800304B186002F09AFE29A3D3E9002303F00A
:1003D80013F803F0A1F92C4B18600A2002F043FB34
:1003E8002A4B04461860400003F0A0FA284B29491C
:1003F800186003F0A3FB284B186040F68B239C423F
:1004080012DC0121032002F002FB244B24491B7853
:10041800244A8DF8003002A83C2301F061F903A8B2
:10042800FFF7A8FF1F4915E040F67A339C421BDD11
:100438000021032002F0EBFA184B19491B781A4ADD
:100448008DF8003002A83C2301F04AF903A8FFF711
:1004580091FF154902A801F082FC114802A9FFF793
:1004680059FF02A801F034FC06B010BDAFF30080BC
:100478004C37894160E5B03FFC030020E4030020CD
:100488005940533AF4030020F0030020E803002009
:100498007403002000009642EC030020F8030020BB
:1004A80088420A0883420A0891420A0870B54748F8
:1004B80092B000F07EFA10B1444800F025FC444B9D
:1004C8001A681D466AB9434C2378002B7BD000F08C
:1004D8007BFD6368C01AA368834274D800F074FD7A
:1004E80060602B683A4A002BC8BF13683A4DC8BFF2
:1004F80003F1FF33394CC8BF1360FFF751FF0122E6
:10050800296802A801F07CFC2378029A34498DF806
:1005180000300EA83C23334E01F0E2F80FA8FFF795
:1005280029FF0122316806A801F06AFC2378069A9F
:100538002D498DF800300EA83C2301F0D1F80FA802
:10054800FFF718FF3168286803F044FA274B014683
:10055800186001220AA801F053FC23780A9A24495A
:100568008DF800300EA83C2301F0BAF80FA8FFF769
:1005780001FF02A90EA801F014FC0EA91848FFF704
:10058800C9FE0EA801F0A4FB06A90EA801F009FCFB
:100598000EA91548FFF7BEFE0EA801F099FB0AA99F
:1005A8000EA801F0FEFB0EA91148FFF7B3FE0EA836
:1005B80001F08EFB0AA801F08BFB06A801F088FB6E
:1005C80002A801F085FB12B070BD00BF78030020BF
:1005D80000030020D4030020EC030020E0030020E7
:1005E80095420A08F0030020A9420A08D003002017
:1005F800B8420A080246014800F053BF7F140A08AF
:1006080000B5294989B02948FFF7F4FF2849294846
:10061800FFF7F0FF28492948FFF7ECFF2849294848
:10062800FFF7E8FF0121032002F0E0F900210A208A
:1006380002F0DCF900210B2002F0D8F9224904A8C5
:1006480001F08DFB01F03AFF0A220146684601F0ED
:10065800C4FB694604A801F001FC01681B4800F0CE
:100668008DFA684601F034FB04A801F031FB174805
:1006780000F09FF918B11649144800F071FC1549AB
:1006880004A801F06CFB04A91348FFF743FE04A873
:1006980001F01EFB00F098FC104B012258601A7004
:1006A80009B05DF804FB00BF39010A08C8420A080E
:1006B800B1010A08D4420A08C9000A08E1420A0836
:1006C80075020A08EC420A087D420A0878030020ED
:1006D800F8420A0804430A0888420A08D40300209A
:1006E80038B5154B00241C70144B01221A70144D98
:1006F80000F082FC02F03EF92346224641F28A319C
:1007080002F040F902F036F923462246214602F06B
:1007180041F90C4B40F25B720B49284600F062F835
:100728000A4A0B49284602F035FA48F6A042094B16
:100738001C709A6038BD00BFF8030020E003002059
:1007480078030020BD000A0813430A08700300203C
:100758006F0F0A08D403002038B50B4B846905468F
:1007680003607CB16368013B63605BB92368204622
:100778009B689847A368013BA3601BB92368204680
:10078800DB689847284638BDA8440A0810B50446CF
:10079800FFF7E2FF2046FFF780FC204610BD38B582
:1007A8001D46059B044603630023436302B182642C
:1007B80019B104F1380001F0FFFA049BE0692365E0
:1007C800069BA4F84C50FF2BB8BFFF23A4F8543065
:1007D80008B1FFF764FCB4F85400FFF75CFCE06173
:1007E80038BD00002DE9FF410446174698460E46DD
:1007F800002501F053FDE5610A4904F1380001F0D4
:10080800AEFAFF2302930F2300932046A564CDF888
:1008180004803B462A463146FFF7C1FF204604B014
:10082800BDE8F081A6430A0810B50446204601F049
:10083800A5FC0028FAD0204601F047FCC0B210BD44
:100848002DE9F0470546C4698A46FFF7EDFF4FF0EA
:10085800010846462070EB69002793F8009009F0DC
:10086800F0092846FFF7E0FFEB69741C985500F083
:100878007F0303FB08770306A4B2BFB24FEAC81888
:1008880001D52646EDE7631EB9F1300F8AF800302E
:1008980013D12846D5F81C80FFF7C6FF08F80400D6
:1008A8002846D5F81C80FFF7BFFFF41C0236B6B205
:1008B800A4B208F80600022300E000231B1B9EB226
:1008C800A3199BB29F420BD92846FFF7ADFFB5F895
:1008D8005430A34284BFEB6918550134A4B2EFE742
:1008E800B5F85400A0422CBF20460020BDE8F08790
:1008F800F7B507468E461E461D46002405F07F03C1
:1009080002A9ED09214418BF43F08003013401F81E
:10091800043CE4B2002DF1D1C4F10403D11802F86B
:1009280003E0A54206DA01A82B1B285C1344587182
:100938000135F6E7721C2244384601F038FB0546BB
:1009480000F042FB013478623444A8B2231A5842BA
:10095800584103B0F0BD10B50446C369E0221A70CF
:10096800C36900225A70C169022201F020FB2046A7
:1009780001F042FC00F028FB6062A06210BDF0B5F7
:100988000D4602339BB26C1A15F8016BA4B23EB146
:10099800B0F854709F4203D95C1CD654A3B2F2E756
:1009A800191B0A44211202F8021C02F8014C1846CD
:1009B800F0BD38B5054601F023FD002814BF012419
:1009C800002402D1284601F017FC204638BD00005B
:1009D8002DE9F04387B00446894617461E46DDF8E0
:1009E8003880FFF7E6FF0546002840F0BD80A16C7F
:1009F80039B90346B4F84C20A16B204601F0F8FA47
:100A080009E0684601F066F82B46B4F84C206946C0
:100A1800204601F04DFC002800F0A2800123238429
:100A28009DF84C30042B15D1524B18689A880090C9
:100A3800ADF804209B79E26900988DF80630C2F879
:100A48000500531DBDF804109DF8062099809A7181
:100A58000C2312E06A46484BD4F81CC01868596841
:100A68001B7A03C213706B4603CBCCF80500CCF895
:100A7800091013788CF80D300E23B8F1000F0AD046
:100A88009DF840209DF83C10520142F0060242EACF
:100A9800C102D2B200E002229DF8481009B902F062
:100AA800FD022FB116B942F0800201E042F0C00207
:100AB800E169581CCA54226DE16912120A54E169AD
:100AC800206D9A1C88540333E26949462046FFF793
:100AD80056FFB8F1000F0BD00346E26941462046A5
:100AE800FFF74DFFE269034611992046FFF747FFDC
:100AF80067B10346E26939462046FFF740FF2EB149
:100B08000346E26931462046FFF739FF431F9BB28F
:100B1800E26910212046FFF7EBFE00F055FA4FF48A
:100B28007A766062A062204601F028FB40B900F0A6
:100B38004BFAA36AC01A236D73439842F3D90FE0A6
:100B480069462046FFF77CFE042809D1E369DE7870
:100B580036B900F039FA0125A06284F82C6004E067
:100B6800204601F049FB00E00025284607B0BDE813
:100B7800F08300BF28430A082F430A087FB50423DF
:100B88000593012304930023039302930193009395
:100B98001A46FFF71DFF07B05DF804FB2DE9F14F7A
:100BA8000D9E04468B4691469A469DF828809DF8EE
:100BB8002C509DF83070FFF7FCFE00284BD0B4F89D
:100BC80054200021E06903F03AFA0523E269594606
:100BD8002046FFF7D4FE6B1E012B12D8238CE26946
:100BE80001339BB223841B121354411CE369228CEA
:100BF80089B2023080B25A541EB1238C5A1C228406
:100C08003380002291B283188A459BB209D9B4F87F
:100C1800546001329E4204D919F80160E169CE544A
:100C2800F0E7B8F1000F0CBF302131210FB141F0CE
:100C38000801022D02D141F0040103E0012D08BF93
:100C480041F002012046053BE2699BB201B0BDE8D4
:100C5800F04FFFF74DBE01B0BDE8F08F1FB5089CFF
:100C68000394002402949DF81C4001949DF81840B8
:100C78000094FFF793FF04B010BD7FB505461046FA
:100C88000E46144603F039FA0023029301930093A9
:100C98002246034631462846FFF7E0FF04B070BD00
:100CA80038B504460D46FFF784FE90B1E369622229
:100CB8001A70E36902225A70E3692A129A70E3698A
:100CC8000422DD70E169204601F071F9003018BF97
:100CD800012038BD38B504460D46FFF76AFE90B1CD
:100CE800E36972221A70E36902225A70E3692A12D0
:100CF8009A70E3690422DD70E169204601F057F932
:100D0800003018BF012038BD2DE9F04F83B000AF87
:100D18000446FFF74EFE8146002800F0F68000F0FA
:100D280053F9226D4FF47A735343A26A0546821A27
:100D38009A4203D8626A821A934217D294F82C30E6
:100D48002BB1204601F058FA4FF00009DDE0E269C6
:100D5800C0211170E26920465370E169022201F056
:100D680026F901236562A56284F82C30204601F03B
:100D780005FA002800F0C980F91D2046FFF760FD3C
:100D88000246002800F0C180E369A562187800F0E7
:100D9800F00130297DD1D4F830B0BBF1000F00F05C
:100DA800B48097F807C0EA4603EB0C00817890F806
:100DB80001E001EB0E2E1FFA8EFE0EF1080121F064
:100DC8000701ADEB010D684600218EB2B64506D984
:100DD8000CEB01061E44F67846540131F5E7002174
:100DE80000F80E101E780CF1030106F00606022E1C
:100DF800CCEB02021ED1714413F8018019444978E2
:100E0800CEEB020201EB08280CF105017144053A0A
:100E18001944D847E36940221A70E3691FFA88F831
:100E28005E70E3694FEA28229A70E369042283F826
:100E3800038020E0042E24D1714413F80180194462
:100E48004978CEEB020201EB08280CF10501714448
:100E5800053A1944D847E36950221A70E369022217
:100E68005A70E3691FFA88F84FEA28229A703246C6
:100E7800E36983F80380E169204601F098F8656228
:100E880005E0033A7144CEEB02021944D847D5462F
:100E98003BE0502908D19978DB78204603EB012103
:100EA80089B2FFF7FDFE30E040290CD0602908D157
:100EB8009978DB78204603EB012189B2FFF70AFF16
:100EC80023E070290DD1616BF9B1042A1DD110F00E
:100ED800060F1AD19878DB7803EB002080B2884798
:100EE80013E0902911D0C0290AD1D0221A70E369E1
:100EF80000225A70E1690222204601F058F804E005
:100F0800D02904BF002384F82C3048460C37BD464E
:100F1800BDE8F08F70B504460E461546FFF749FD4B
:100F2800E8B1238C01339BB203B901232384238CBA
:100F3800E2691B125371E369228C31469A71E269A6
:100F480007232046FFF71BFDE36982211D54031F79
:100F5800E2692046BDE870409BB2FFF7C9BC70BD8E
:100F68000022FFF7D7BF10B50446FFF722FD10B1E6
:100F78002046FFF7F0FCE06908B1FFF790F804F1AC
:100F8800380000F0A5FE2046FFF7E6FB204610BD1E
:100F980000F032B800F030B808B5024B1B681B6B84
:100FA800019308BDD001060808B5024B1B68DB6E2B
:100FB800019308BDB801060808B5024B1B685B68B9
:100FC800019308BD9C01060808B5024B1B685B69C4
:100FD800019308BD9C01060808B5024B1B68DB6934
:100FE800019308BD9C01060808B5024B1B689B6D60
:100FF800019308BD9C01060808B5024B1B681B68D5
:10100800019308BDB001060808B5024B1B685B6870
:10101800019308BDB001060808B5024B1B689B6820
:10102800019308BDB001060808B5024B1B68DB68D0
:10103800019308BDB001060808B5024B1B681B697F
:10104800019308BDB001060808B5024B1B685B692F
:10105800019308BDB001060808B5024B1B689B6ADE
:10106800019308BDB001060808B5024B1B681B6B4D
:10107800019308BDB001060808B5024B1B689B6FB9
:10108800019308BDB001060808B5024B1B681B6E2A
:10109800019308BDAC01060808B5024B1B685B6EDE
:1010A800019308BDAC01060808B5024B1B689B6E8E
:1010B800019308BDAC01060808B5024B1B68DB6E3E
:1010C800019308BDAC01060808B5024B1B681B6FED
:1010D800019308BDAC01060808B5024B1B685B6F9D
:1010E800019308BDAC01060808B5034B1B68D3F88B
:1010F8008030019308BD0000AC01060808B5024B1A
:101108001B681B68019308BDBC01060808B5024BA3
:101118001B685B68019308BDBC01060808B5024B53
:101128001B689B68019308BDBC01060808B5024B03
:101138001B68DB68019308BDBC01060808B5024BB3
:101148001B681B69019308BDBC01060808B5024B62
:101158001B681B6A019308BDBC01060808B5024B51
:101168001B681B6B019308BDBC01060808B5024B40
:101178001B685B6C019308BDBC01060808B5024BEF
:101188001B68DB69019308BDB401060808B5024B6A
:101198001B681B6A019308BDB401060808B5024B19
:1011A8001B689B69019308BDC401060808B5024B7A
:1011B8001B685B6A019308BDC401060808B5024BA9
:1011C8001B689B6A019308BDC401060808B5024B59
:1011D8001B68DB6A019308BDC401060808B5024B09
:1011E8001B681B6B019308BDC401060808B5024BB8
:1011F8001B685B6B019308BDC401060808B5024B68
:101208001B689B6B019308BDC401060808B5024B17
:101218001B681B6C019308BDC401060808B5024B86
:101228001B681B68019308BDD801060808B5024B66
:101238001B681B69019308BDD801060808B5024B55
:101248001B685B69019308BDD801060808B5024B05
:101258001B689B69019308BDD801060808B5024BB5
:101268001B68DB69019308BDD801060808B5024B65
:101278001B681B6A019308BDD801060808B5024B14
:101288001B685B6C019308BDC001060808B5024BDA
:101298001B689B6C019308BDC001060808B5024B8A
:1012A8001B681B6D019308BDA801020808B5024B15
:1012B8001B681B68019308BDA401060808B5024B0A
:1012C8001B685B68019308BDA401060808B5024BBA
:1012D8001B68DB6C019308BDA401060808B5024B26
:1012E8001B685B6D019308BDA401060808B5024B95
:1012F8001B689B6D019308BDA401060808B5034B44
:101308001B68D3F89030019308BD0000A4010608BB
:1013180008B5034B1B68D3F89C30019308BD000047
:10132800A401060808B5024B1B685B68019308BD59
:10133800CC01060808B5024B1B689B68019308BDE1
:10134800CC01060808B5024B1B685B69019308BD10
:10135800CC01060808B5024B1B681B6A019308BD3F
:10136800CC01060808B5024B1B681B6B019308BD2E
:10137800CC01060808B5024B1B68DB6B019308BD5E
:10138800CC01060808B5024B1B681B69019308BD10
:10139800C801060808B5024B1B681B68019308BD05
:1013A800A001060808B5024B1B685B68019308BDDD
:1013B800A001060808B5024B1B689B68019308BD8D
:1013C800A001060808B5024B1B68DB6A019308BD3B
:1013D800A001060808B5024B1B681B6B019308BDEA
:1013E800A001060810B5836804460BB901F0D7FBC5
:1013F800C3689847A3681BB1032221462046984733
:101408002046BDE81040FEF748BE704700207047F0
:1014180010B50446FEF741FE204610BD08B508B1D8
:10142800FFF7F6FF08BD10B58368044613B1032221
:1014380001469847204610BD38B5C468D4B1237812
:10144800022B02D1E068FFF7ADFF65682DB1284691
:10145800FFF7E9FF2846FEF720FEA5682DB12846CC
:10146800FFF7E1FF2846FEF718FE2046BDE83840A2
:10147800FEF713BE38BD10B588B00446684600F0C4
:101488006EFC694604A800F08CFC04A8A04704463A
:1014980004A800F01DFC684600F01AFC204608B0BD
:1014A80010BDF0B507460E46154685B010242246F5
:1014B8000021684602F0C3FD002269461046ADF8D7
:1014C8000040029703960195FFF72CFF05B0F0BD89
:1014D80013B5044691E8050000234B600B602060BB
:1014E800626001A801930093FEF744FF204602B012
:1014F80010BD0B68036013B15A6801325A60704717
:10150800F7B50C4606460F4654F8043B02AD45F8BD
:10151800083D214601A8FFF7ECFF29463046FFF7B2
:10152800D7FF01A8FEF726FF2046FEF723FF38461F
:10153800FEF7B3FD304603B0F0BD13B50B460446C5
:1015480003C88DE8030093E8030084E803009DE8DE
:10155800030083E8030002B010BD826810B50AB921
:1015680001F01DFBC368BDE81040184708B50068C6
:1015780000F11001FFF7F1FF08BD826810B50AB944
:1015880001F00DFBC368BDE81040184708B50068B6
:1015980000F11001FFF7F1FF08BD38B500238360A3
:1015A8008B6804460D462BB102229847EB68E3602E
:1015B800AB68A360204638BD2DE9F0414FF69C7317
:1015C80004684FF0020086B0B1F904208B80002334
:1015D8000F688DF800300B60D4E84F1F994203D193
:1015E800C4E8450F002DF7D102D08DF800106BE04C
:1015F80014F10C051CBFE7602282BFF35F8F18BF90
:101608001F4601236370BFF35F8F04F108030020B6
:1016180053E8006F43E80002002AF9D1BFF35F8F57
:10162800002E51D0FFF752FE20B129463046FFF771
:1016380094FF43E031466846FFF7AFFFE068B4F92E
:10164800105008B102F03EFD04901020ADF814507F
:10165800FEF71FFD054630B34FF00008C0F80880BC
:101668001820FEF716FD0446C0B1C0F808800146F0
:101678006846FFF762FF029BA268A360039B029281
:10168800E268E360BDF814300392A3824FF69C73BE
:10169800ADF81430049BCDF8108023610D4B2C60FD
:1016A800EB600D4BAB600498FFF77CFE6846FFF7D4
:1016B800BAFE002229460948FFF710FE3046FFF718
:1016C800B2FE3046FEF7E9FC3846FFF76BFE06B07F
:1016D800BDE8F08175150A08D1170A08ED130A0844
:1016E8002DE9F04F8BB007AD4FF0000B0646994639
:1016F80014200C230F4690469DF850A0C5F804B05E
:10170800C5F808B00793FEF7C4FC044638B180F862
:1017180000B080F801B0C0F804B0C0F808B00023E9
:10172800102003940493FEF7B4FC28B1012343600E
:101738008360234BC4600360224B04900820089305
:10174800FEF7A7FC044628B1039B04A940F8043B14
:10175800FFF7CFFE00955FFA8AF34A4641463846BE
:101768000994FFF7F7FDB8B9039B5B7803F0FF0214
:1017780093B94FF69C7305A903A80592ADF81830E4
:10178800FFF71AFF0598FFF70DFE05A80999FFF75F
:10179800B7FE06A8FEF7EEFD039B04A906A805936D
:1017A800FFF7A7FE05A93046FFF792FE06A8FEF749
:1017B800E1FD04A8FEF7DEFD30460BB0BDE8F08F72
:1017C80040430A0839190A08022AF8B5044606D01F
:1017D800032A17D0012A20D10B6803601DE01820C6
:1017E8000E68FEF756FC054650B13146FFF7D5FEA8
:1017F8003069B6F9147008B102F064FC2861AF8250
:1018080025600AE0046844B12069FFF7CBFD204653
:10181800FFF709FE2046FEF740FC0020F8BD38B56A
:10182800002383608B6804460D462BB1022298473B
:10183800EB68E360AB68A360204638BD022A70B548
:10184800044606D0032A11D0012A17D10B68036079
:1018580014E014200E68FEF71CFC054620B1314642
:10186800FFF7DDFF337C2B74256007E004682CB19B
:101878002046FFF7D8FD2046FEF70FFC002070BD7C
:10188800F0B50C46BFF35F8F87B0002350E8006FB8
:1018980040E80032002AF9D1BFF35F8F002E3ED016
:1018A8001846FFF713FD074620B121463046FFF7DB
:1018B80064FE2EE0314601A8FFF7B1FF237810201F
:1018C8008DF81430FEF7E5FB0546D0B1876014208B
:1018D800FEF7DFFB044678B18760014601A8FFF7F1
:1018E8002CFE039BA268A360049B0392E268E3605A
:1018F8009DF81430049223740A4B2C60EB600A4B59
:10190800AB6001A8FFF78FFD002229460748FFF7C3
:10191800E5FC3046FFF787FD3046FEF7BEFB07B013
:10192800F0BD00BF95150A0845180A08ED130A0806
:1019380030B5044685B00D4668461146FFF7E0FD10
:101948007CB124B228460DB102F0BCFB029002A97A
:101958006846ADF80C40FFF72FFE0298FFF722FD0E
:101968001DE04FF0010200988DF80840D0E84F3F85
:10197800A34203D1C0E8412F0029F7D102D08DF846
:1019880008300CE010F10C014FF0010318BF03738D
:10199800BFF35F8F043000F8033CFFF771FF01A825
:1019A800FEF7E8FC05B030BD7047F8B506461546A9
:1019B8000C468F18BC4206D0336814F8011B9B688C
:1019C80030469847F6E72846F8BD0022007CFFF726
:1019D8005BBB0021007CFFF75FBB0021007CFFF7A9
:1019E80063BB0021007CFFF767BB0021007CFFF789
:1019F8006BBB10B50446FEF750FB204610BD000037
:101A080010B5044608464FF47A73A360044B0021CE
:101A1800207461602360FFF767FB204610BD00BF9C
:101A28005C430A080021007CFFF756BB704710B5DD
:101A38000446FEF732FB204610BDF8B50F4600F10C
:101A48000806051D002416F8011D0A22384600F074
:101A5800A6F8AE42044407D0002CF4D02E21384614
:101A680000F070F80444EEE72046F8BD10B50446CF
:101A7800044B112240F8043B002102F0E0FA204612
:101A880010BD00BF84430A0810B59DF8084044EA19
:101A9800032343EA024242EA0161042341600375D9
:101AA80010BD000037B5044D05609DF8185000952D
:101AB800FFF7EAFF03B030BD84430A0837B50D7855
:101AC8008B784A78C97800912946FFF7DDFF03B083
:101AD80030BD000010B50446024B0360FFF7EEFF6F
:101AE800204610BD84430A08014A024B1A60704719
:101AF8004B440A0800040020F8B506460D468F1826
:101B08000024BD420CD0336815F8011B9B68304691
:101B18009847002801DB0444F3E7002C08BF04467B
:101B28002046F8BD70B505460C46084649B102F096
:101B3800E4FA2B68024621462846BDE87040DB6877
:101B4800184770BD03689B681847012A98BF0A2286
:101B580030B50B468BB000218DF824100DF123040D
:101B6800B3FBF2F505FB1233DBB2092B94BF30331C
:101B78003733DBB2214604F801392B46002DEFD16B
:101B8800FFF7D0FF0BB030BD10B422B90368C9B25B
:101B98009B6810BC1847D2B210BCFFF7D6BFFFF73E
:101BA800F3BF10B50446FFF73EFC204610BD000009
:101BB800034800238360034A034900F0EBBF00BFDA
:101BC8000404002070030020AB1B0A08704710B5FE
:101BD8000446FEF762FA204610BD000070B50446C0
:101BE8000E46074B0025036040F80C5FFFF7D4F959
:101BF80030462671FFF7C2FAA560204670BD00BFC7
:101C08007C440A080079FFF7C1BA00002DE9F14FBA
:101C180080460D4617461E460022002340462946A8
:101C280001F032FD20B12D23337005F10045013656
:101C3800002301240A22D9B28F4202D95443013326
:101C4800F9E7204601F048FA42462B4601F0AAFA85
:101C580082468B4602F026F88046894601F06CFAE7
:101C680002460B465046594601F0E8F80022174B49
:101C780001F01EFD18B118F1010849F10009E51736
:101C880022462B464046494601F0F4FF01230A222A
:101C9800314600F0AAFDAFB1304602F02EFA2E23ED
:101CA80033540130064422462B464046494601F04B
:101CB800E1FF3B46104631460A2201B0BDE8F04F2D
:101CC80000F093BD01B0BDE8F08F00BF0000E03F19
:101CD80010B504460068FFF765FB204610BD10B537
:101CE8000446006808B1FFF75DFB00232360A3608A
:101CF800636010BD38B504460D4600680131FFF732
:101D080059FB10B184E82100012038BD10B50368E3
:101D1800044613B143688B4207D22046FFF7EAFF17
:101D280020B1A3680BB922681370012010BD70B5EB
:101D38000E46114604461546FFF7E8FF18B9204637
:101D4800FFF7CDFF09E02A463146A560206802F07A
:101D58006BF92268A3680021D154204670BD38B5BC
:101D68000023044603604360836003730D4639B162
:101D7800084602F0C2F9294602462046FFF7D7FF77
:101D8800204638BD884210B50B46044607D009687E
:101D980019B19A68FFF7CBFF01E0FFF7A0FF2046D3
:101DA80010BD10B5044600230360436083600373CD
:101DB800FFF7E8FF204610BD38B505460C4641B18F
:101DC800084602F09AF9214602462846FFF7AFFF77
:101DD80001E0FFF784FF284638BD10B5044600230C
:101DE8008AB023606360A3602373084601A900F0EA
:101DF800BEFC01A92046FFF7DFFF20460AB010BD50
:101E080030B5044600238BB00360436083600373DE
:101E1800D5B2084601F072F901AB2A46FFF7F6FE83
:101E280001A92046FFF7C8FF20460BB030BD70B5AA
:101E380004460E4609B9002070BD6AB18368D518FA
:101E48002946FFF763FF0028F5D02068A3683146CC
:101E5800184402F02FF9A560012070BD10B58A68FA
:101E680009680446FFF7E3FF10B92046FFF737FF7C
:101E7800204610BD08B582680B4612B919B9012071
:101E880008BD11B90368187802E0006802F008F983
:101E9800B0FA80F0400908BD10B5144683688A6816
:101EA8009B1AA3420AD3006858B1096841B120447B
:101EB80002F02BF9B0FA80F0400910BD002010BDE7
:101EC800084610BD82688B689A4202D30022FFF749
:101ED800E3BF0020704783688B4203D9006810B1C4
:101EE800405C704700207047FFF7F5BF2DE9F041CF
:101EF8001C469A4288BF13460E46154688BF25469B
:101F08000D4988BF1C460746FFF729FFB1688D4277
:101F18000FD88C4228BF0C463368002213F804807F
:101F28001A55316838462944FFF746FF336803F8E5
:101F380004803846BDE8F081A6430A0810B5044677
:101F48008B68FFF7D3FF204610BD006808B102F088
:101F580045B870474FF69C7337B50D4C0025638024
:101F68004FF6FF732846A3802570FFF7A7F902A84C
:101F780040F8045D2A462946FFF716F8019B1E2BF8
:101F880004D10323237011236580A38003B030BDDF
:101F98001404002037B502AC036804F8011DDD6B9A
:101FA800012247F230532146A84703B030BD10B490
:101FB8000368DC6B47F23053A44610BC604737B562
:101FC80002AC036804F8011DDD6B214613460122AB
:101FD800A84703B030BD704770470020704710B560
:101FE8000446FEF75AF8204610BDFEF756B8000022
:101FF8002DE9F0431F4603688FB0DB6A06460C469E
:1020080090469847134B186803681B689847F0B1C7
:1020180002A8FFF72BFD204602F06FF8002300937B
:1020280081B23B4603AA2046FFF730F978B93368F6
:1020380009ADD3F82090084B03AC08930FCC0FC51B
:10204800236842462B7008A93B463046C8470FB064
:10205800BDE8F0839C450A0884430A0810B5044685
:1020680003689B689847A368013BA3602BB9236862
:102078002046BDE81040DB68184710BD70B504461F
:1020880006464D69044B8C3544F8043B0FCD0FC40C
:102098002B683046237070BD84430A0810B5436925
:1020A8000446B3F88620B3F884309A4205D06269B2
:1020B800B2F884301344187910BD03681B69984737
:1020C8000028F4D14FF0FF3010BD10B54369044625
:1020D800B3F88620B3F884309A4208D06269B2F81F
:1020E8008430591CA2F884101344187910BD036871
:1020F8001B6998470028F1D14FF0FF3010BD10B58B
:1021080004692068FFF702F810B12068FFF71EF88D
:102118002046BDE81040FDF7C0BFF8B54369174633
:10212800B3F88620B3F8843005469A420E4606D1A5
:1021380003681B69984710B94FF0FF3414E06969C8
:102148003046B1F88430B1F886401944E41ABC42EC
:1021580028BF3C460431224601F066FF6A69B2F89E
:1021680084302344A2F884302046F8BD4269002315
:10217800A2F884304269A2F88630704738B54269BF
:102188000446B2F886301BB1B2F884209A420BD0CC
:10219800184B186803681B68984718B36369186870
:1021A800FEF7B4FF18B91DE0FFF7E0FFF0E760693C
:1021B800B0F886107F2915D8051DC1F180020023CB
:1021C80029440068FEF7BAFF00280BDD6369B3F8FD
:1021D80086200AB9A3F884206269B2F886301844C8
:1021E800A2F886006269B2F88630B2F88400181A3C
:1021F80038BD00BF9C450A0838B5436904461868CD
:10220800FEF784FF18B163691868FEF79FFF6569D8
:10221800FEF7A4FF28606069112200218C3001F0CC
:102228000EFF2046BDE83840FFF7A0BFF8B54FF4D1
:102238007A738360174B00264660036046618661A7
:102248000446A0200F46FDF724FF054638B1076075
:10225800A0F88460A0F886608830FFF707FC142097
:10226800FDF717FF034628B10122426082600A4A3F
:1022780005610260A0696561A36128B14368013BFB
:1022880043600BB9FFF7EAFE2046FFF76FFF2046D1
:10229800F8BD00BFA8440A088C440A0810B50446D3
:1022A800FEF75CFF01462046FFF7C0FF204610BD41
:1022B8002DE9F041984603688AB0DB6A06460C4669
:1022C800154698472F4B186803681B6898470028DD
:1022D80055D02B4606220121CDF8008002207769CF
:1022E800FEF71CFF202338600293002773690397C9
:1022F8001B6801200193244B02AA009323493B4603
:10230800FEF7CCFF73691868FEF700FF002836D087
:102318003046FFF72BFF0223ADF808302B0A8DF863
:102328000A30E3794FF4FA508DF80C30A3798DF820
:102338000B508DF80D3063798DF80E3014F8043F8A
:102348008DF80F30FEF79AFF73690546102202A92F
:102358001868FEF7EBFE80462846FEF78FFF0FCC85
:1023680075698C350FC523682B70B8F1000F05D03F
:1023780033683046DB6A9847384600E001200AB0E7
:10238800BDE8F0819C450A08F3440A08EC440A08B1
:1023980010B5436904461868FEF7B8FE08B900206E
:1023A80010BD074B186803681B6898470028F6D0CB
:1023B80063691868FEF7A2FEB0FA80F0400910BD04
:1023C8009C450A082DE9F3410025456004460E4660
:1023D80017469846FFF7DCFF60B160690195CDF8B4
:1023E80000802B463A4631460068FEF7BFFE0028BB
:1023F80003DA01E04FF0FF30606002B0BDE8F08121
:1024080038B50446FFF7C4FF00BB6369B3F886100C
:10241800B3F88420914219D11868FEF777FE28B1E5
:1024280063691868FEF76AFE012801D000250EE0EE
:10243800236820461B699847002814BF01250025FA
:1024480005D123682046DB6A984700E00125284625
:1024580038BD08B5FFF79CFF003018BF012008BD44
:1024680008B50020FEF77EFF28B1FEF76BFF80F06D
:102478000100C0B208BD012008BD10B50020FEF75C
:10248800B3FD044668B9FEF711FF01280BD12046B9
:10249800FEF72CFF38B9FFF7E3FF30B9FEF74AFF24
:1024A800F9E7012010BD002010BDFFF7D9FF00207B
:1024B800FEF79AFD003018BF012010BD08B5FFF7E0
:1024C800DCFFBDE80840FEF787BD0000024B1A6834
:1024D800024B1A60704700BF040300201C04002050
:1024E800704741747047007CFEF790BE007CFEF791
:1024F80065BE007CFEF772BE007CFEF767BE007CFE
:10250800FEF774BE10B50446FDF7C7FD204610BDA2
:1025180070B5457C04460E4625B9007CFEF776FE6C
:10252800002805DD3146207CBDE87040FEF73EBE40
:10253800284670BD10B50446084611460022626060
:102548004FF47A72A260054A2074226001226274F4
:102558001A46FEF723FE204610BD00BF38450A087C
:10256800007CFEF74BBE000038B50C4D296811F011
:10257800010411D12846FDF794FD68B1084A2146A7
:10258800084B0948FFF7D6FF2846FDF78FFD074A95
:102598000749054800F0FEFA034838BDB804002092
:1025A800BC04002034040020200400207003002014
:1025B800E9240A084174704770470021007CFEF73F
:1025C80045BE0121007CFEF741BE007CFEF736BE09
:1025D800007CFEF72BBE38B50446007C0D46FEF79E
:1025E8002DFE002801DC607C20B12946207CFEF706
:1025F80035FE012038BD007CFEF738BE10B5044614
:10260800FDF74BFD204610BD10B50446002363605E
:102618004FF47A73A360054B0846236001232174A5
:1026280063741146FEF7FAFD204610BD68450A0896
:1026380010B504461422002101F001FD054B204687
:102648006360054BE36040F20113238181232382F9
:1026580010BD00BFC50500204405002030B50E4D53
:1026680087B001A8FFF7E4FF296811F0010410D131
:102678002846FDF716FD60B101AA21460748FFF775
:10268800C3FF2846FDF712FD054A0649034800F036
:1026980081FA024807B030BD40050020C806002076
:1026A80070030020C1250A0810B504461422002131
:1026B80001F0C5FC054B20466360054BE36040F222
:1026C800011323818123238210BD00BF78070020D6
:1026D800E006002010B50E4C86B001A8FFF7E4FF15
:1026E8002368DB0710D42046FDF7DBFC60B101AAA4
:1026F80001210848FFF788FF2046FDF7D7FC064A66
:102708000649044800F046FA024806B010BD00BF6A
:10271800DC0600206407002070030020C1250A0899
:102728007047002211461046FEF72CBE0348044BA2
:10273800044A0549036000F02DBA00BF7C08002058
:1027480098450A087003002029270A0810B504468E
:1027580001F0D3FC013823182046984206D20278AB
:10276800197800F8011B03F80129F6E710BD931E3C
:10277800232B2DE9F041154634BF15460A258CB0A8
:1027880000230A2D0C468DF82C3007D1984205DA23
:102798002D2301F101080B70404201E0A8B1A046C9
:1027A8000DF12B0601272A46014601A801F028FC55
:1027B800029A0198092ACCBF37233023134406F81C
:1027C800013901370028EED106E0A04630238DF804
:1027D8002B300DF12A0602273A46711C404601F0BB
:1027E80023FC20460CB0BDE8F08170B50C46911E64
:1027F800222920D82546294610B9234430220EE044
:10280800B0FBF2F602FB1600C1B2092805F8011B5D
:1028180094BF3031573105F8011C3046EBE7994237
:1028280002D201F8012BFAE7002320460B70FFF7CC
:102838008DFF204670BD002070BD000008B5144B08
:1028480033B1FFF70BFF03681B699847002816DCB4
:10285800104B33B1FFF788FE03681B6998470028BF
:1028680010DC0D4B0BB1AFF300800C4B7BB1FFF7C5
:1028780031FF03681B699847002806DC08BDAFF3E1
:102888000080E5E7AFF30080EBE7AFF3008008BD19
:102898000000000000000000000000000000000030
:1028A80008B5FFF7CBFFFEF78FFB014B186008BD9B
:1028B800880800200248034A0349121A01F0B4BBF1
:1028C800004002400440024048470A0807B5002378
:1028D80000931A466FF07701FEF71AFD03B05DF812
:1028E80004FB000007B543880A2B08D0502B09D1F8
:1028F800094B1B683BB103B05DF804EB1847FFF7C1
:10290800E5FF06E0002300931A466FF07701FEF713
:10291800FFFC03B05DF804FB8008002038B5104CBC
:10292800104D2368AB42104B0CBF012200221A70D5
:1029380002D0FFF7BFFF2560FEF73EFB01F088FBE2
:102948000A4B1BB1FEF738FBAFF3008000210748A4
:10295800FEF710FDBDE8384000210548FEF7CEBC63
:10296800004002401E1C279A840800200000000036
:10297800ED280A0808B5024B1B681B68019308BDBF
:102988009C01020808B5024B1B685B68019308BDEF
:102998009C01020808B5024B1B689B68019308BD9F
:1029A8009C01020810B504460F48FFF72BF928B11F
:1029B800A4F10D03022B01D8002010BD00F090F8FF
:1029C800FFF730F808B1012CF6D9FFF7CDFDFFF776
:1029D800C7FD18B1A4F11203012BEDD9172C8CBF38
:1029E8000020012010BD00BFBC080020172838B502
:1029F80004460D460AD8FF2908D0FFF7D3FF28B1AF
:102A080029462046BDE83840FEF706BB38BD38B534
:102A180004460D46FEF708FBFF2810D0062804D808
:102A28004D2323FA00F0C30709D42046FFF7BAFF65
:102A380028B129462046BDE83840FEF7FDBA38BD22
:102A480010B50446FEF7F0FA0438C0B2012808D9D8
:102A58002046FFF7A7FF20B12046BDE81040FEF74B
:102A6800F3BA002010BD10B5044609289CBF0A34EB
:102A7800A4B22046FFF796FF50B103212046FEF787
:102A8800C3FA032804D12046BDE81040FEF7ECBA8B
:102A9800002010BD38B504460D46FFF783FFF0B19E
:102AA80004212046FEF7B0FA042805D1A9B2204631
:102AB800BDE83840FEF7D0BA02212046FEF7A4FA56
:102AC80002280CD12046FEF7AFFA012801D00428CD
:102AD80005D129462046BDE83840FEF7CDBA38BDB5
:102AE80038B50B4D296811F001040FD12846FDF7C0
:102AF800D8FA58B121460748FEF782FF2846FDF765
:102B0800D5FA054A0549034800F044F8014838BD9C
:102B18008C0800209008002070030020B1190A08D2
:102B280013B5084C00231A46194600932046FEF7B1
:102B3800B9FF2046044A054902B0BDE8104000F03C
:102B480029B800BFA408002070030020351A0A081D
:102B580070B50C4C0C4E0D4D00212046FFF73EF889
:102B680020460B4C3246294600F014F80121204635
:102B7800FFF734F8324629462046BDE8704000F099
:102B880009B800BFBC08002070030020D51B0A0844
:102B9800CC0800200B460146184601F023BA08B5B8
:102BA800FEF710FC244B1A68D0075CBF01221A609C
:102BB800224B1A68D1075CBF01221A60204B1A68A1
:102BC800D2075CBF01221A601E4B1A68D0075CBF8F
:102BD80001221A601C4B1A68D1075CBF01221A60D7
:102BE8001A4B1A68D2075CBF01221A60184B1A6880
:102BF800D0075CBF01221A60164B1A68D1075CBF68
:102C080001221A60144B1A68D2075CBF01221A60AD
:102C1800124B1A68D0075CBF01221A60104B1A6861
:102C2800D1075CBF01221A600E4B1A68D2075CBF3D
:102C380001221A60704700BF08090020040900201B
:102C480000090020FC080020F8080020F4080020F3
:102C5800F0080020EC080020E8080020E408002024
:102C6800E0080020DC080020184B1A68D1075CBF78
:102C780001221A60164B1A68D2075CBF01221A603B
:102C8800144B1A68D0075CBF01221A60124B1A68ED
:102C9800D1075CBF01221A60104B1A68D2075CBFCB
:102CA80001221A600E4B1A68D0075CBF01221A6015
:102CB8000C4B1A68D1075CBF01221A600A4B1A68CC
:102CC800D2075CBF01221A60704700BF28090020A4
:102CD80024090020200900201C09002018090020D0
:102CE80014090020100900200C090020184B1A684C
:102CF800D1075CBF01221A60164B1A68D2075CBF65
:102D080001221A60144B1A68D0075CBF01221A60AE
:102D1800124B1A68D1075CBF01221A60104B1A685F
:102D2800D2075CBF01221A600E4B1A68D0075CBF3D
:102D380001221A600C4B1A68D1075CBF01221A6085
:102D48000A4B1A68D2075CBF01221A60704700BF9D
:102D58004809002044090020400900203C090020BF
:102D68003809002034090020300900202C090020EF
:102D7800244B1A68D0075CBF01221A60224B1A68DC
:102D8800D1075CBF01221A60204B1A68D2075CBFCA
:102D980001221A601E4B1A68D0075CBF01221A6014
:102DA8001C4B1A68D1075CBF01221A601A4B1A68BB
:102DB800D2075CBF01221A60184B1A68D0075CBFA3
:102DC80001221A60164B1A68D1075CBF01221A60EB
:102DD800144B1A68D2075CBF01221A60124B1A689A
:102DE800D0075CBF01221A60104B1A68D1075CBF7C
:102DF80001221A600E4B1A68D2075CBF01221A60C2
:102E0800704700BF7809002074090020700900206D
:102E18006C0900206809002064090020600900206E
:102E28005C0900205809002054090020500900209E
:102E38004C09002081F0004102E000BF83F000430C
:102E480030B54FEA41044FEA430594EA050F08BF3D
:102E580090EA020F1FBF54EA000C55EA020C7FEA01
:102E6800645C7FEA655C00F0E2804FEA5454D4EB7E
:102E78005555B8BF6D420CDD2C4480EA020281EA48
:102E8800030382EA000083EA010180EA020281EA80
:102E98000303362D88BF30BD11F0004F4FEA0131D2
:102EA8004FF4801C4CEA113102D0404261EB4101E1
:102EB80013F0004F4FEA03334CEA133302D0524267
:102EC80063EB430394EA050F00F0A780A4F1010423
:102ED800D5F1200E0DDB02FA0EFC22FA05F280185D
:102EE80041F1000103FA0EF2801843FA05F3594143
:102EF8000EE0A5F120050EF1200E012A03FA0EFCC2
:102F080028BF4CF0020C43FA05F3C01851EBE371EB
:102F180001F0004507D54FF0000EDCF1000C7EEB08
:102F280000006EEB0101B1F5801F1BD3B1F5001F46
:102F38000CD349085FEA30004FEA3C0C04F1010465
:102F48004FEA445212F5800F80F09A80BCF1004F8E
:102F580008BF5FEA500C50F1000041EB045141EA10
:102F6800050130BD5FEA4C0C404141EB010111F411
:102F7800801FA4F10104E9D191F0000F04BF0146BC
:102F88000020B1FA81F308BF2033A3F10B03B3F19A
:102F980020020CDA0C3208DD02F1140CC2F10C022A
:102FA80001FA0CF021FA02F10CE002F11402D8BF88
:102FB800C2F1200C01FA02F120FA0CFCDCBF41EA54
:102FC8000C019040E41AA2BF01EB0451294330BD23
:102FD8006FEA04041F3C1CDA0C340EDC04F1140400
:102FE800C4F1200220FA04F001FA02F340EA0300D7
:102FF80021FA04F345EA030130BDC4F10C04C4F11D
:10300800200220FA02F001FA04F340EA03002946FC
:1030180030BD21FA04F0294630BD94F0000F83F446
:10302800801306BF81F480110134013D4EE77FEA29
:10303800645C18BF7FEA655C29D094EA050F08BF75
:1030480090EA020F05D054EA000C04BF1946104656
:1030580030BD91EA030F1EBF0021002030BD5FEA9A
:10306800545C05D14000494128BF41F0004130BDC2
:1030780014F580043CBF01F5801130BD01F0004516
:1030880045F0FE4141F470014FF0000030BD7FEA89
:10309800645C1ABF194610467FEA655C1CBF0B4684
:1030A800024650EA013406BF52EA033591EA030F9B
:1030B80041F4002130BD00BF90F0000F04BF002193
:1030C800704730B54FF4806404F132044FF00005C6
:1030D8004FF0000150E700BF90F0000F04BF00213F
:1030E800704730B54FF4806404F1320410F00045A5
:1030F80048BF40424FF000013EE700BF42004FEAA0
:10310800E2014FEA31014FEA02701FBF12F07F431C
:1031180093F07F4F81F06051704792F0000F14BF19
:1031280093F07F4F704730B54FF4607401F000455D
:1031380021F0004120E700BF50EA010208BF7047B4
:1031480030B54FF000050AE050EA010208BF7047A9
:1031580030B511F0004502D5404261EB41014FF412
:10316800806404F132045FEA915C3FF4DCAE4FF016
:1031780003025FEADC0C18BF03325FEADC0C18BFFD
:10318800033202EBDC02C2F1200300FA03FC20FA4E
:1031980002F001FA03FE40EA0E0021FA02F114449B
:1031A800C1E600BF70B54FF0FF0C4CF4E06C1CEAB0
:1031B80011541DBF1CEA135594EA0C0F95EA0C0F25
:1031C80000F0DEF82C4481EA030621EA4C5123EA98
:1031D8004C5350EA013518BF52EA033541F48011C7
:1031E80043F4801338D0A0FB02CE4FF00005E1FB7A
:1031F80002E506F00042E0FB03E54FF00006E1FBC4
:1032080003569CF0000F18BF4EF0010EA4F1FF0406
:10321800B6F5007F64F5407404D25FEA4E0E6D4146
:1032280046EB060642EAC62141EA55514FEAC52057
:1032380040EA5E504FEACE2EB4F1FD0C88BFBCF5D3
:10324800E06F1ED8BEF1004F08BF5FEA500E50F184
:10325800000041EB045170BD06F0004646EA01014A
:1032680040EA020081EA0301B4EB5C04C2BFD4EB7C
:103278000C0541EA045170BD41F480114FF0000E75
:10328800013C00F3AB8014F1360FDEBF002001F0E3
:10329800004170BDC4F10004203C35DA0C341BDC5D
:1032A80004F11404C4F1200500FA05F320FA04F02F
:1032B80001FA05F240EA020001F0004221F0004163
:1032C80010EBD37021FA04F642EB06015EEA430ED6
:1032D80008BF20EAD37070BDC4F10C04C4F1200506
:1032E80000FA04F320FA05F001FA04F240EA0200B9
:1032F80001F0004110EBD37041F100015EEA430E8A
:1033080008BF20EAD37070BDC4F1200500FA05F2A9
:103318004EEA020E20FA04F301FA05F243EA020328
:1033280021FA04F001F0004121FA04F220EA020037
:1033380000EBD3705EEA430E08BF20EAD37070BD7D
:1033480094F0000F0FD101F00046400041EB01015D
:1033580011F4801F08BF013CF7D041EA060195F03F
:10336800000F18BF704703F00046520043EB0303F9
:1033780013F4801F08BF013DF7D043EA06037047E6
:1033880094EA0C0F0CEA135518BF95EA0C0F0CD0F1
:1033980050EA410618BF52EA4306D1D181EA030137
:1033A80001F000414FF0000070BD50EA410606BF31
:1033B8001046194652EA430619D094EA0C0F02D176
:1033C80050EA013613D195EA0C0F05D152EA0336BB
:1033D8001CBF104619460AD181EA030101F00041D9
:1033E80041F0FE4141F470014FF0000070BD41F022
:1033F800FE4141F4780170BD70B54FF0FF0C4CF4FC
:10340800E06C1CEA11541DBF1CEA135594EA0C0F1A
:1034180095EA0C0F00F0A7F8A4EB050481EA030E67
:1034280052EA03354FEA013100F088804FEA03334E
:103438004FF0805545EA131343EA12634FEA02221C
:1034480045EA111545EA10654FEA00260EF00041DD
:103458009D4208BF964244F1FD0404F5407402D22F
:103468005B084FEA3202B61A65EB03055B084FEAC0
:1034780032024FF480104FF4002CB6EB020E75EBBD
:10348800030E22BFB61A754640EA0C005B084FEAE5
:103498003202B6EB020E75EB030E22BFB61A754662
:1034A80040EA5C005B084FEA3202B6EB020E75EBAD
:1034B800030E22BFB61A754640EA9C005B084FEA25
:1034C8003202B6EB020E75EB030E22BFB61A754632
:1034D80040EADC0055EA060E18D04FEA051545EA21
:1034E80016754FEA06164FEAC30343EA52734FEACA
:1034F800C2025FEA1C1CC0D111F4801F0BD141EA43
:1035080000014FF000004FF0004CB6E711F4801FA7
:1035180004BF01430020B4F1FD0C88BFBCF5E06F87
:103528003FF6AFAEB5EB030C04BFB6EB020C5FEA97
:10353800500C50F1000041EB045170BD0EF0004EEC
:103548004EEA113114EB5C04C2BFD4EB0C0541EA1E
:10355800045170BD41F480114FF0000E013C90E61B
:1035680045EA060E8DE60CEA135594EA0C0F08BFDF
:1035780095EA0C0F3FF43BAF94EA0C0F0AD150EADE
:1035880001347FF434AF95EA0C0F7FF425AF104671
:1035980019462CE795EA0C0F06D152EA03353FF499
:1035A800FDAE1046194622E750EA410618BF52EA16
:1035B80043067FF4C5AE50EA41047FF40DAF52EAEA
:1035C80043057FF4EBAE12E74FF0FF3C06E000BF87
:1035D8004FF0010C02E000BF4FF0010C4DF804CD94
:1035E8004FEA410C7FEA6C5C4FEA430C18BF7FEA54
:1035F8006C5C1BD001B050EA410C0CBF52EA430C82
:1036080091EA030F02BF90EA020F0020704710F101
:10361800000F91EA030F58BF994208BF90422CBF90
:10362800D8176FEAE37040F0010070474FEA410C89
:103638007FEA6C5C02D150EA013C07D14FEA430CA7
:103648007FEA6C5CD6D152EA033CD3D05DF8040B18
:10365800704700BF8446104662468C46194663464A
:1036680000E000BF01B5FFF7B7FF002848BF10F121
:10367800000F01BD4DF808EDFFF7F4FF0CBF012066
:1036880000205DF808FB00BF4DF808EDFFF7EAFFE2
:1036980034BF012000205DF808FB00BF4DF808ED9D
:1036A800FFF7E0FF94BF012000205DF808FB00BF92
:1036B8004DF808EDFFF7CEFF94BF012000205DF81C
:1036C80008FB00BF4DF808EDFFF7C4FF34BF012029
:1036D80000205DF808FB00BF4A0011D212F5001265
:1036E80011D20DD56FF47873B3EB62520ED44FEA52
:1036F800C12343F0004343EA505323FA02F07047D2
:103708004FF00000704750EA013002D14FF0FF300F
:1037180070474FF0000070474FEA4102B2F1E043B2
:1037280024BFB3F5001CDCF1FE5C0DD901F0004CA0
:103738004FEAC0024CEA5070B2F1004F40EB8300F0
:1037480008BF20F00100704711F0804F21D113F11C
:103758003872BCBF01F00040704741F480114FEA55
:103768005252C2F11802C2F1200C10FA0CF320FADE
:1037780002F018BF40F001004FEAC1234FEAD323FB
:1037880003FA0CFC40EA0C0023FA02F34FEA430365
:10379800CCE77FEA625307D150EA01331EBF4FF0EE
:1037A800FE4040F44000704701F0004040F0FE4009
:1037B80040F40000704700BF80F0004002E000BF06
:1037C80081F0004142001FBF5FEA410392EA030F04
:1037D8007FEA226C7FEA236C6AD04FEA1262D2EB4E
:1037E8001363C1BFD218414048404140B8BF5B4253
:1037F800192B88BF704710F0004F40F4000020F0EC
:103808007F4018BF404211F0004F41F4000121F001
:103818007F4118BF494292EA030F3FD0A2F101024B
:1038280041FA03FC10EB0C00C3F1200301FA03F189
:1038380000F0004302D5494260EB4000B0F5000FAC
:1038480013D3B0F1807F06D340084FEA310102F16B
:103858000102FE2A51D2B1F1004F40EBC25008BF1D
:1038680020F0010040EA03007047490040EB0000E7
:1038780010F4000FA2F10102EDD1B0FA80FCACF116
:10388800080CB2EB0C0200FA0CF0AABF00EBC25015
:1038980052421843BCBFD0401843704792F0000F03
:1038A80081F4000106BF80F400000132013BB5E756
:1038B8004FEA41037FEA226C18BF7FEA236C21D0CC
:1038C80092EA030F04D092F0000F08BF0846704731
:1038D80090EA010F1CBF0020704712F07F4F04D1FF
:1038E800400028BF40F00040704712F100723CBF12
:1038F80000F50000704700F0004343F0FE4040F43C
:10390800000070477FEA226216BF08467FEA2363F9
:103918000146420206BF5FEA412390EA010F40F4E4
:10392800800070474FF0000304E000BF10F0004330
:1039380048BF40425FEA000C08BF704743F0964317
:1039480001464FF000001CE050EA010208BF704732
:103958004FF000030AE000BF50EA010208BF7047B9
:1039680011F0004302D5404261EB41015FEA010CCE
:1039780002BF84460146002043F0B64308BFA3F1C6
:103988008053A3F50003BCFA8CF2083AA3EBC253A8
:1039980010DB01FA02FC634400FA02FCC2F12002C7
:1039A800BCF1004F20FA02F243EB020008BF20F0FE
:1039B8000100704702F1200201FA02FCC2F1200264
:1039C80050EA4C0021FA02F243EB020008BF20EA59
:1039D800DC7070474FF0FF0C1CEAD0521EBF1CEA87
:1039E800D15392EA0C0F93EA0C0F6FD01A4480EA75
:1039F800010C400218BF5FEA41211ED04FF000635E
:103A080043EA501043EA5111A0FB01310CF0004089
:103A1800B1F5000F3EBF490041EAD3715B0040EAAF
:103A2800010062F17F02FD2A1DD8B3F1004F40EB7F
:103A3800C25008BF20F00100704790F0000F0CF052
:103A4800004C08BF49024CEA502040EA51207F3A16
:103A5800C2BFD2F1FF0340EAC250704740F40000F1
:103A68004FF00003013A5DDC12F1190FDCBF00F0E2
:103A780000407047C2F10002410021FA02F1C2F190
:103A8800200200FA02FC5FEA310040F1000053EA2C
:103A98004C0308BF20EADC70704792F0000F00F07A
:103AA800004C02BF400010F4000F013AF9D040EA80
:103AB8000C0093F0000F01F0004C02BF490011F414
:103AC800000F013BF9D041EA0C018FE70CEAD15312
:103AD80092EA0C0F18BF93EA0C0F0AD030F0004C92
:103AE80018BF31F0004CD8D180EA010000F0004046
:103AF800704790F0000F17BF90F0004F084691F004
:103B0800000F91F0004F14D092EA0C0F01D142023D
:103B18000FD193EA0C0F03D14B0218BF084608D106
:103B280080EA010000F0004040F0FE4040F4000050
:103B3800704740F0FE4040F4400070474FF0FF0CE3
:103B48001CEAD0521EBF1CEAD15392EA0C0F93EA2A
:103B58000C0F69D0A2EB030280EA010C49024FEA7C
:103B6800402037D04FF0805343EA111143EA101335
:103B78000CF000408B4238BF5B0042F17D024FF4ED
:103B8800000C8B4224BF5B1A40EA0C00B3EB510FC8
:103B980024BFA3EB510340EA5C00B3EB910F24BFB1
:103BA800A3EB910340EA9C00B3EBD10F24BFA3EB36
:103BB800D10340EADC001B0118BF5FEA1C1CE0D1FE
:103BC800FD2A3FF650AF8B4240EBC25008BF20F0B1
:103BD800010070470CF0004C4CEA50207F32C2BF05
:103BE800D2F1FF0340EAC250704740F400004FF0A2
:103BF8000003013A37E792F0000F00F0004C02BFD3
:103C0800400010F4000F013AF9D040EA0C0093F09C
:103C1800000F01F0004C02BF490011F4000F013BF6
:103C2800F9D041EA0C0195E70CEAD15392EA0C0F5E
:103C380008D142027FF47DAF93EA0C0F7FF470AF96
:103C4800084676E793EA0C0F04D14B023FF44CAFD9
:103C580008466EE730F0004C18BF31F0004CCAD16E
:103C680030F000427FF45CAF31F000437FF43CAFAA
:103C78005FE700BF53B94AB9002908BF00281CBF35
:103C88004FF0FF314FF0FF3000F0A6B9ADF1080C4E
:103C98006DE904CE00F02AF8DDF804E0DDE902233E
:103CA80004B07047D0B500220E4B06460F46FFF70A
:103CB80079FAFFF711FD0446FFF7FEF900220A4BD7
:103CC800FFF770FA02460B4630463946FFF7B6F85A
:103CD800FFF702FD2346002242EA00021046194679
:103CE800D0BD00BF0000F03D0000F0412DE9F04FCD
:103CF8008C460C460546099E002B4FD18A42174632
:103D08006BD9B2FA82FEBEF1000F0BD0CEF12005BE
:103D180020FA05F501FA0EF345EA030C02FA0EF74C
:103D280000FA0EF5390CBCFBF1F0BAB201FB10C376
:103D380000FB02F84FEA154C4CEA0344A04509D9A8
:103D4800E41900F1FF3380F02881A04540F2258175
:103D580002383C44C8EB0404B4FBF1F301FB134CF8
:103D680003FB02F2ACB244EA0C418A4209D9C919F0
:103D780003F1FF3480F00F818A4240F20C81023B4C
:103D880039448A1A43EA00400021002E63D022FAFF
:103D98000EF2002386E80C00BDE8F08F8B4207D9AD
:103DA800002E56D0002186E811000846BDE8F08FA5
:103DB800B3FA83F1002940F09380A34202D38242F0
:103DC80000F2FE80851A64EB03039C460120002E56
:103DD80041D086E82010BDE8F08F12B90127B7FB63
:103DE800F2F7B7FA87FEBEF1000F36D1E41B4FEAAF
:103DF80017481FFA87F90121B4FBF8F308FB1344AD
:103E080009FB03F24FEA154C4CEA0444A24207D9D5
:103E1800E41903F1FF3002D2A24200F2D380034634
:103E2800A41AB4FBF8F008FB104809FB00F9ACB27F
:103E380044EA0842914507D9D21900F1FF3402D269
:103E4800914500F2BA802046C9EB020240EA0340DD
:103E58009BE731463046BDE8F08F07FA0EF7CEF102
:103E6800200C24FA0CF34FEA1748B3FBF8FA1FFAB0
:103E780087F908FB1A3520FA0CFC04FA0EF40AFB41
:103E880009FB4CEA040C4FEA1C4242EA05439B45F5
:103E980000FA0EF50AD9DB190AF1FF3280F08B809F
:103EA8009B4540F28880AAF1020A3B44CBEB03030E
:103EB800B3FBF8F008FB103300FB09F41FFA8CFC85
:103EC8004CEA03439C4207D9DB1900F1FF326ED25A
:103ED8009C426CD902383B441C1B40EA0A418BE7E0
:103EE800C1F1200E8B4022FA0EFC4CEA030C24FA96
:103EF8000EF74FEA1C49B7FBF9FA1FFA8CF309FBD6
:103F08001A7720FA0EF88C400AFB03F548EA0404F5
:103F18004FEA144848EA0747BD4202FA01F200FA9C
:103F280001FB09D917EB0C070AF1FF3041D2BD425A
:103F38003FD9AAF1020A67447F1BB7FBF9F509FBD1
:103F4800157705FB03F3A4B244EA0747BB4208D937
:103F580017EB0C0705F1FF3027D2BB4225D9023DEC
:103F6800674445EA0A40A0FB0289FF1A4F454546C7
:103F78004C4614D329D066B3BBEB050367EB0407A3
:103F880007FA0EFECB40CF404EEA030386E88800CE
:103F98000021BDE8F08F2346F3E61846DAE6B8EBD1
:103FA800020569EB0C040138E5E70546D9E7104638
:103FB80092E78246C0E7924678E702383A4443E7F8
:103FC800084604E7023B3C442AE7C345E7D33C469E
:103FD800D1E73146BDE8F08F704700BF0A220021C3
:103FE80000F02EB910B5054C13462CB10A4601460F
:103FF8000220AFF3008010BD204610BD0000000075
:1040080010B591FBF2F4002902FB141304DB002B1A
:1040180007DA01349B1A04E0002BC4BF04F1FF3413
:104028009B180460436010BD10B5431E0A449142BA
:1040380004D011F8014B03F8014FF8E710BD03460F
:104048000244934202D003F8011BFAE770470000CC
:1040580038B5124B05461C68A36BD3B91820FDF779
:1040680099F943F20E33A06303804AF6CD334380B7
:1040780041F2342383804EF26D63C3804DF6EC63C6
:104088000381052343810B23838101220023C0E997
:104098000423A36B00221D615A6138BD6C03002004
:1040A80010F8012B11F8013B012A28BF9A42F7D0DA
:1040B800D01A7047034611F8012B03F8012B002A88
:1040C800F9D17047024B0146186800F003B800BFE9
:1040D8006C03002070B5064608460C4600F00DF843
:1040E800451C29463046FDF775F9064618B12A469B
:1040F8002146FFF799FF304670BD034613F8012BA0
:10410800002AFBD1181A0138704730B582B1451E14
:10411800013915F8013F11F8014FA34206D1EC43CC
:104128001444E04201D0002BF3D11C46181B30BDCB
:10413800104630BD2DE9F0470F4680463F48D0F87D
:1041480000903D4615F8014B09EB0400407800F05B
:10415800080000F0FF0608B12F46F2E72D2C03D126
:10416800BD1C7C78012603E02B2C04BF7C78BD1C89
:1041780013B1102B0AD15BE0302C57D1287800F00E
:10418800DF0058284DD16C7810230235002E14BF5B
:104198004FF0004C6FF0004CBCFBF3FA0027384698
:1041A80003FB1ACC09EB040E9EF801E01EF0040F85
:1041B80001D0303C0BE01EF0030E1BD0BEF1010F06
:1041C8000CBF4FF0370E4FF0570ECEEB0404A3424E
:1041D80010DDB7F1FF3F0AD0504506D801D164453C
:1041E80003DC03FB0040012701E04FF0FF3715F81F
:1041F800014BD7E77B1C0CD1002E4FF0220314BFD4
:104208004FF000406FF00040C8F800302AB9BDE810
:10421800F08706B1404272B107B1691E1160BDE86E
:10422800F0873024002BB1D10823AFE70A23ADE78C
:10423800302CA3D0AAE7BDE8F08700BF0803002010
:1042480013460A46014602480068FFF773BF00BFDD
:104258006C0300201D000A085D000A0889000A088E
:104268008D000A0800000000440041004849474802
:10427800004C4F5700783035335F00486967680055
:104288006D792D6576656E74004C6F7700783035E2
:10429800335F62617474657279566F6C74616765B7
:1042A80000783035335F636861726765416D70000F
:1042B800783035335F736F6C6172506F7765720059
:1042C8006469676974616C726561640064696769CF
:1042D80074616C777269746500616E616C6F677286
:1042E80065616400616E616C6F67777269746500FF
:1042F8007570646174655374617473004D515454DE
:1043080020636F6E6E656374656400736B696E6EAF
:10431800792E736B796368617274732E6E6574009D
:1043280000044D5154540400064D51497364700300
:10433800000000000000000013140A0819140A08FD
:1043480041140A0825140A0815140A080000000078
:1043580000000000B1190A08FB190A08D3190A0855
:10436800B3190A08DB190A08E3190A08EB190A083D
:10437800F3190A080000000000000000431A0A08A8
:10438800351A0A08371A0A0866006C6E00666E004D
:10439800636F64650064657461696C000D0A0025CB
:1043A8003031307520005D20002564002C20002865
:1043B800293A2000205B00636F6465203D200025BA
:1043C800690064657461696C73203D2000626175E1
:1043D800640053657269616C005553425365726994
:1043E800616C31007479706500706172616D006391
:1043F8006D6400696400686E64007374726D0066B1
:10440800696C74006C766C0061646448616E646CFD
:1044180065720072656D6F766548616E646C657271
:1044280000656E756D48616E646C657273004A5301
:104438004F4E53747265616D4C6F6748616E646C62
:10444800657200617070006E6F6E650074726163F2
:104458006500696E666F007761726E006572726FD3
:10446800720070616E696300616C6C00000000008E
:1044780000000000D51B0A08D71B0A08000000002E
:1044880000000000E11F0A08E71F0A0807210A08C0
:10449800F31F0A08E31F0A080000000000000000DC
:1044A80061070A0895070A089D1F0A08B71F0A0826
:1044B80085210A08D3200A08A5200A08DF1F0A0850
:1044C800B9220A08F91F0A0823210A0801220A0842
:1044D80009240A085B240A08C71F0A08CD230A080A
:1044E80085200A08776972696E6700544350436CE7
:1044F80069656E7420736F636B65743D2578005A27
:1045080000252B3033643A253032750025592D2586
:104518006D2D25645425483A254D3A2553257A00B2
:1045280061736374696D650000000000000000009D
:10453800E9240A080D250A0819250A08011B0A0892
:10454800F5240A0801250A08FB240A0807250A0891
:10455800EB240A08EF240A0800000000000000000D
:10456800C1250A0805260A08DF250A08011B0A08CA
:10457800D9250A08C3250A08CB250A08FF250A08F1
:10458800D3250A08BD250A08000000000000000025
:104598002B270A087C08002000202020202020202B
:1045A80020202828282828202020202020202020DB
:1045B80020202020202020202088101010101010EB
:1045C8001010101010101010100404040404040437
:1045D80004040410101010101010414141414141D1
:1045E80001010101010101010101010101010101B3
:1045F80001010101101010101010424242424242C3
:104608000202020202020202020202020202020282
:10461800020202021010101020000000000000002A
:104628000000000000000000000000000000000082
:104638000000000000000000000000000000000072
:104648000000000000000000000000000000000062
:104658000000000000000000000000000000000052
:104668000000000000000000000000000000000042
:104678000000000000000000000000000000000032
:104688000000000000000000000000000000000022
:104698000000000000000000000000000000000012
:1046A8000000000000000000000000000000000002
:1046B80000000000000000000000000000000000F2
:1046C80000000000000000000000000000000000E2
:1046D80000000000000000000000000000000000D2
:1046E80000000000000000000000000000000000C2
:1046F800000000000000000000000000430000006F
:10470800E9060A08990F0A089D0F0A08F11A0A080B
:10471800B91B0A085D1F0A08D5240A0835270A08A4
:10472800292B0A08592B0A08AD2B0A08712C0A08EC
:08473800F52C0A08792D0A088E
:08474000B4F5FF7F0100000049
:04474800000000006D
:10474C000100000028450A08A0450A0800000000E6
:10475C00A4460A08C4460A08E4460A0800000000F9
:10476C0000000000000000000000000004470A08E0
:10477C00000000000000000000000000000000002D
:10478C00000000000000000000000000000000001D
:10479C00000000000000000000000000000000000D
:1047AC000000000000000000000000000C030020CE
:1047BC00FFFFFFFF8A13000000000102030405063F
:1047CC000708090A0B0C0D0E0F10111213141516F5
:0C47DC001718191A1B1C1D1E1F20280096
:0447E80078563412B9
:04000005080A0018CD
:00000001FF
