:02000004080AE8
:1000000000000A08840E0A08000005000600050129
:080010000402EA0300000000F5
:10001800A40B0A0809480A4908B5884205D0094AC4
:10002800824202D0121A00F075FD0748074A0021E3
:10003800121A00F07AFD064808BD00BF0003002030
:10004800F40D0A086803002068030020D008002087
:10005800D008002070B500F09BFB074B074C1E46EC
:10006800E41AA4080025A54204D056F8253098477C
:100078000135F8E770BD00BFBC0D0A08EC0D0A0891
:1000880000F011B808B500F00FF8BDE8084000F01E
:1000980041BB00F0D9B80078B0FA80F04009704749
:1000A8000123037070477047704700F021B80000C3
:1000B80008B5024B1B681B6B019308BDD0010608ED
:1000C80008B5024B1B68DB6E019308BDB801060832
:1000D80008B5024B1B685B68019308BD9C010608C4
:1000E80008B5024B1B685B69019308BD9C010608B3
:1000F80008B5024B1B681B68019308BDB0010608D0
:1001080008B5024B1B68DB69019308BDB4010608FA
:1001180008B5024B1B689B69019308BDC40106081A
:1001280008B5024B1B685B6A019308BDC401060849
:1001380008B5024B1B689B6A019308BDC4010608F9
:1001480008B5024B1B68DB6A019308BDC4010608A9
:1001580008B5024B1B681B6B019308BDC401060858
:1001680008B5024B1B685B6B019308BDC401060808
:1001780008B5024B1B681B6C019308BDC401060837
:1001880008B5024B1B681B68019308BDD801060817
:1001980008B5024B1B681B69019308BDD801060806
:1001A80008B5024B1B685B69019308BDD8010608B6
:1001B80008B5024B1B689B69019308BDD801060866
:1001C80008B5024B1B68DB69019308BDD801060816
:1001D80008B5024B1B681B6A019308BDD8010608C5
:1001E80008B5024B1B685B68019308BDA4010608AB
:1001F80008B5034B1B68D3F89030019308BD000085
:10020800A401060808B5034B1B68D3F89C3001937A
:1002180008BD0000A401060808B5024B1B68DB6B8B
:10022800019308BDCC01060808B5024B1B681B6981
:10023800019308BDC801060808B5024B1B681B6876
:10024800019308BDA001060808B5024B1B685B684E
:10025800019308BDA001060810B58368044613B1D0
:10026800032201469847204610BD704710B5044642
:10027800FFF70FFF204610BDF8B50F4600F108063E
:10028800051D002416F8011D0A22384600F081F8E1
:10029800AE42044407D0002CF4D02E21384600F09A
:1002A8004BF80444EEE72046F8BD10B59DF8084029
:1002B80044EA032343EA024242EA0161042341601B
:1002C800037510BD37B5044D05609DF818500095AD
:1002D800FFF7EBFF03B030BDC00B0A08014A024B21
:1002E8001A607047870C0A086C030020F8B50646A8
:1002F8000D468F180024BD420CD0336815F8011B39
:100308009B6830469847002801DB0444F3E7002C3B
:1003180008BF04462046F8BD70B505460C46084699
:1003280049B100F033FC2B68024621462846BDE857
:100338007040DB68184770BD03689B681847012A3E
:1003480098BF0A2230B50B468BB000218DF82410D7
:100358000DF12304B3FBF2F505FB1233DBB2092BD5
:1003680094BF30333733DBB2214604F801392B46CA
:10037800002DEFD1FFF7D0FF0BB030BD10B422B97C
:100388000368C9B29B6810BC1847D2B210BCFFF70B
:10039800D6BFFFF7F3BF10B50446FFF75DFF204651
:1003A80010BD0000034800238360034A034900F09E
:1003B80055BA00BF70030020680300209F030A0895
:1003C800704710B50446FFF764FE204610BD0000D4
:1003D80070B504460E46074B0025036040F80C5FD5
:1003E800FFF766FE30462671FFF78AFEA5602046B5
:1003F80070BD00BFB80C0A084FF69C7337B50D4C9A
:10040800002563804FF6FF732846A3802570FFF709
:10041800E7FE02A840F8045D2A462946FFF750FE89
:10042800019B1E2B04D10323237011236580A38015
:1004380003B030BD80030020024B1A68024B1A60DB
:10044800704700BF000300208803002070474174F4
:100458007047007CFFF78CBE007CFFF769BE007C0C
:10046800FFF776BE007CFFF76BBE007CFFF778BE17
:1004780010B50446FFF70DFE204610BD70B5457C4B
:1004880004460E4625B9007CFFF772FE002805DDFC
:100498003146207CBDE87040FFF742BE284670BD5B
:1004A80010B5044608461146002262604FF47A727D
:1004B800A260054A20742260012262741A46FFF77E
:1004C80027FE204610BD00BFF40C0A0838B50C4DB5
:1004D800296811F0010411D12846FFF7DCFD68B145
:1004E800084A2146084B0948FFF7DAFF2846FFF774
:1004F800D7FD074A0749054800F0B0F9034838BD59
:100508002404002028040020A00300208C030020DD
:100518006803002055040A08417470477047002199
:10052800007CFFF745BE0121007CFFF741BE007C3F
:10053800FFF736BE007CFFF72BBE38B50446007CBB
:100548000D46FFF72DFE002801DC607C20B129460E
:10055800207CFFF735FE012038BD007CFFF738BE50
:1005680010B50446FFF795FD204610BD10B50446AA
:10057800002363604FF47A73A360054B0846236039
:100588000123217463741146FFF7FAFD204610BD5C
:10059800240D0A0810B504461422002100F0C5FAFB
:1005A800054B20466360054BE36040F2011323814D
:1005B8008123238210BD00BF31050020B004002034
:1005C80030B50E4D87B001A8FFF7E4FF296811F098
:1005D800010410D12846FFF75EFD60B101AA21464B
:1005E8000748FFF7C3FF2846FFF75AFD054A0649A3
:1005F800034800F033F9024807B030BDAC040020CE
:10060800340600206803002025050A0810B50446B2
:100618001422002100F089FA054B20466360054B3F
:10062800E36040F2011323818123238210BD00BFC0
:10063800E40600204C06002010B50E4C86B001A838
:10064800FFF7E4FF2368DB0710D42046FFF723FDFC
:1006580060B101AA01210848FFF788FF2046FFF78B
:100668001FFD064A0649044800F0F8F8024806B09B
:1006780010BD00BF48060020D006002068030020F7
:1006880025050A087047002211461046FFF7CCBD21
:100698000348044B044A0549036000F0DFB800BF73
:1006A800E8070020540D0A08680300208D060A0890
:1006B80008B5144B33B1FFF783FF03681B699847EC
:1006C800002816DC104B33B1FFF700FF03681B69E5
:1006D8009847002810DC0D4B0BB1AFF300800C4B92
:1006E8007BB1FFF7A9FF03681B699847002806DC60
:1006F80008BDAFF30080E5E7AFF30080EBE7AFF3A9
:10070800008008BD0000000000000000000000009C
:100718000000000008B5FFF7CBFFFFF7E1FC014B35
:10072800186008BDF40700200248034A0349121A5A
:1007380000F0F0B90040024004400240F00D0A0801
:1007480007B5002300931A466FF07701FFF75AFDAB
:1007580003B05DF804FB000007B543880A2B08D0F6
:10076800502B09D1094B1B683BB103B05DF804EB72
:100778001847FFF7E5FF06E0002300931A466FF0DD
:100788007701FFF73FFD03B05DF804FBEC0700209D
:1007980038B5104C104D2368AB42104B0CBF0122EA
:1007A80000221A7002D0FFF7BFFF2560FFF790FC08
:1007B80000F0C4F90A4B1BB1FFF78AFCAFF30080C5
:1007C80000210748FFF728FDBDE83840002105480B
:1007D800FFF70EBD004002401E1C279AF0070020BC
:1007E8000000000061070A0813B5084C00231A46E8
:1007F800194600932046FFF765FD2046044A05493F
:1008080002B0BDE8104000F029B800BFF80700208A
:100818006803002073020A0870B50C4C0C4E0D4D8D
:1008280000212046FFF7D4FD20460B4C32462946CE
:1008380000F014F801212046FFF7CAFD3246294688
:100848002046BDE8704000F009B800BF100800203D
:1008580068030020C9030A08200800200B46014647
:10086800184600F049B90000244B1A68D0075CBF4D
:1008780001221A60224B1A68D1075CBF01221A6054
:10088800204B1A68D2075CBF01221A601E4B1A68F7
:10089800D0075CBF01221A601C4B1A68D1075CBFE5
:1008A80001221A601A4B1A68D2075CBF01221A602B
:1008B800184B1A68D0075CBF01221A60164B1A68D9
:1008C800D1075CBF01221A60144B1A68D2075CBFBB
:1008D80001221A60124B1A68D0075CBF01221A6005
:1008E800104B1A68D1075CBF01221A600E4B1A68B8
:1008F800D2075CBF01221A60704700BF5C08002065
:100908005808002054080020500800204C080020F7
:100918004808002044080020400800203C08002027
:10092800380800203408002030080020184B1A68C6
:10093800D1075CBF01221A60164B1A68D2075CBF48
:1009480001221A60144B1A68D0075CBF01221A6092
:10095800124B1A68D1075CBF01221A60104B1A6843
:10096800D2075CBF01221A600E4B1A68D0075CBF21
:1009780001221A600C4B1A68D1075CBF01221A6069
:100988000A4B1A68D2075CBF01221A60704700BF81
:100998007C080020780800207408002070080020D7
:1009A8006C08002068080020640800206008002007
:1009B800184B1A68D1075CBF01221A60164B1A68D7
:1009C800D2075CBF01221A60144B1A68D0075CBFBB
:1009D80001221A60124B1A68D1075CBF01221A6003
:1009E800104B1A68D2075CBF01221A600E4B1A68B6
:1009F800D0075CBF01221A600C4B1A68D1075CBF94
:100A080001221A600A4B1A68D2075CBF01221A60D9
:100A1800704700BF9C080020980800209408002018
:100A2800900800208C0800208808002084080020F6
:100A380080080020244B1A68D0075CBF01221A6086
:100A4800224B1A68D1075CBF01221A60204B1A6832
:100A5800D2075CBF01221A601E4B1A68D0075CBF20
:100A680001221A601C4B1A68D1075CBF01221A6068
:100A78001A4B1A68D2075CBF01221A60184B1A6811
:100A8800D0075CBF01221A60164B1A68D1075CBFF9
:100A980001221A60144B1A68D2075CBF01221A603F
:100AA800124B1A68D0075CBF01221A60104B1A68F3
:100AB800D1075CBF01221A600E4B1A68D2075CBFCF
:100AC80001221A60704700BFCC080020C808002027
:100AD800C4080020C0080020BC080020B808002076
:100AE800B4080020B0080020AC080020A8080020A6
:100AF800A4080020A008002010B5054C13462CB10E
:100B08000A4601460220AFF3008010BD204610BD02
:100B18000000000010B5431E0A44914204D011F8A9
:100B2800014B03F8014FF8E710BD03460244934216
:100B380002D003F8011BFAE77047000038B5124BE2
:100B480005461C68A36BD3B91820FFF775FB43F261
:100B58000E33A06303804AF6CD33438041F2342339
:100B680083804EF26D63C3804DF6EC6303810523E9
:100B780043810B23838101220023C0E90423A36B53
:100B880000221D615A6138BD64030020034613F832
:100B9800012B002AFBD1181A013870471D000A08DA
:100BA8005D000A0889000A088D000A080000000094
:100BB800000000000000000081020A0873020A0811
:100BC80075020A0866006C6E00666E00636F6465E5
:100BD8000064657461696C000D0A00253031307558
:100BE80020005D20002564002C200028293A2000E0
:100BF800205B00636F6465203D2000256900646503
:100C08007461696C73203D200062617564005365EE
:100C18007269616C0055534253657269616C3100A9
:100C28007479706500706172616D00636D6400694C
:100C38006400686E64007374726D0066696C740099
:100C48006C766C0061646448616E646C65720072F5
:100C5800656D6F766548616E646C657200656E756A
:100C68006D48616E646C657273004A534F4E5374DD
:100C78007265616D4C6F6748616E646C6572006186
:100C88007070006E6F6E6500747261636500696EE6
:100C9800666F007761726E006572726F72007061C4
:100CA8006E696300616C6C000000000000000000C9
:100CB800C9030A08CB030A085A00252B3033643AC3
:100CC800253032750025592D256D2D25645425486C
:100CD8003A254D3A2553257A0061736374696D6529
:100CE80000000000000000000000000055040A0891
:100CF80079040A0885040A08F5020A0861040A0842
:100D08006D040A0867040A0873040A0857040A08E5
:100D18005B040A08000000000000000025050A081E
:100D280069050A0843050A08F5020A083D050A0884
:100D380027050A082F050A0863050A0837050A085F
:100D480021050A0800000000000000008F060A08BC
:100D5800000000000000000000000000000000008B
:100D6800000000000000000000000000000000007B
:100D7800000000000000000000000000000000006B
:100D8800000000000000000000000000000000005B
:100D9800000000000000000000000000000000004B
:100DA800000000000000000000000000000000003B
:100DB80043000000B3000A08E5020A08AD030A0868
:100DC80001040A0841040A0899060A08F1070A08F2
:100DD80021080A0871080A0835090A08B9090A0821
:080DE8003D0A0A0800000000AA
:040DF00000000000FF
:100DF400E10C0A0800000000580D0A08780D0A08E2
:100E0400980D0A0800000000000000000000000027
:100E140000000000B80D0A080000000000000000F7
:100E240000000000000000000000000000000000BE
:100E340000000000000000000000000000000000AE
:100E4400000000000000000000000000000000009E
:080E540000000000040300206F
:100E5C00FFFFFFFF00000102030405060708090A53
:100E6C000B0C0D0E0F101112131415161718191A4E
:080E7C001B1C1D1E1F20280095
:040E84007856341256
:04000005080A0018CD
:00000001FF
